{"abi":[{"anonymous":false,"inputs":[{"indexed":false,"internalType":"address","name":"hostedAt","type":"address"}],"name":"ThreadCreation","type":"event"},{"inputs":[{"internalType":"string","name":"title","type":"string"}],"name":"createThread","outputs":[{"internalType":"address","name":"","type":"address"}],"stateMutability":"nonpayable","type":"function"},{"inputs":[{"internalType":"uint256","name":"","type":"uint256"}],"name":"deployedThreads","outputs":[{"internalType":"address","name":"","type":"address"}],"stateMutability":"view","type":"function"},{"inputs":[],"name":"getDeployedThreads","outputs":[{"internalType":"address[]","name":"","type":"address[]"}],"stateMutability":"view","type":"function"}],"devdoc":{"kind":"dev","methods":{},"version":1},"evm":{"assembly":"    /* \"Thread.sol\":27:599  contract ThreadFactory {\r... */\n  mstore(0x40, 0x80)\n  callvalue\n  dup1\n  iszero\n  tag_1\n  jumpi\n  0x00\n  dup1\n  revert\ntag_1:\n  pop\n  dataSize(sub_0)\n  dup1\n  dataOffset(sub_0)\n  0x00\n  codecopy\n  0x00\n  return\nstop\n\nsub_0: assembly {\n        /* \"Thread.sol\":27:599  contract ThreadFactory {\r... */\n      mstore(0x40, 0x80)\n      callvalue\n      dup1\n      iszero\n      tag_1\n      jumpi\n      0x00\n      dup1\n      revert\n    tag_1:\n      pop\n      jumpi(tag_2, lt(calldatasize, 0x04))\n      shr(0xe0, calldataload(0x00))\n      dup1\n      0xb4a93c26\n      eq\n      tag_3\n      jumpi\n      dup1\n      0xc5314210\n      eq\n      tag_4\n      jumpi\n      dup1\n      0xe29c188c\n      eq\n      tag_5\n      jumpi\n    tag_2:\n      0x00\n      dup1\n      revert\n        /* \"Thread.sol\":175:463  function createThread(string memory title) public returns (address)\r... */\n    tag_3:\n      tag_6\n      0x04\n      dup1\n      calldatasize\n      sub\n      dup2\n      add\n      swap1\n      tag_7\n      swap2\n      swap1\n      tag_8\n      jump\t// in\n    tag_7:\n      tag_9\n      jump\t// in\n    tag_6:\n      mload(0x40)\n      tag_10\n      swap2\n      swap1\n      tag_11\n      jump\t// in\n    tag_10:\n      mload(0x40)\n      dup1\n      swap2\n      sub\n      swap1\n      return\n        /* \"Thread.sol\":475:590  function getDeployedThreads() public view returns (address[] memory)\r... */\n    tag_4:\n      tag_12\n      tag_13\n      jump\t// in\n    tag_12:\n      mload(0x40)\n      tag_14\n      swap2\n      swap1\n      tag_15\n      jump\t// in\n    tag_14:\n      mload(0x40)\n      dup1\n      swap2\n      sub\n      swap1\n      return\n        /* \"Thread.sol\":63:95  address[] public deployedThreads */\n    tag_5:\n      tag_16\n      0x04\n      dup1\n      calldatasize\n      sub\n      dup2\n      add\n      swap1\n      tag_17\n      swap2\n      swap1\n      tag_18\n      jump\t// in\n    tag_17:\n      tag_19\n      jump\t// in\n    tag_16:\n      mload(0x40)\n      tag_20\n      swap2\n      swap1\n      tag_11\n      jump\t// in\n    tag_20:\n      mload(0x40)\n      dup1\n      swap2\n      sub\n      swap1\n      return\n        /* \"Thread.sol\":175:463  function createThread(string memory title) public returns (address)\r... */\n    tag_9:\n        /* \"Thread.sol\":234:241  address */\n      0x00\n        /* \"Thread.sol\":259:283  address newThreadAddress */\n      dup1\n        /* \"Thread.sol\":305:310  title */\n      dup3\n        /* \"Thread.sol\":312:322  msg.sender */\n      caller\n        /* \"Thread.sol\":294:323  new Thread(title, msg.sender) */\n      mload(0x40)\n      tag_22\n      swap1\n      tag_23\n      jump\t// in\n    tag_22:\n      tag_24\n      swap3\n      swap2\n      swap1\n      tag_25\n      jump\t// in\n    tag_24:\n      mload(0x40)\n      dup1\n      swap2\n      sub\n      swap1\n      0x00\n      create\n      dup1\n      iszero\n      dup1\n      iszero\n      tag_26\n      jumpi\n      returndatasize\n      0x00\n      dup1\n      returndatacopy\n      revert(0x00, returndatasize)\n    tag_26:\n      pop\n        /* \"Thread.sol\":259:324  address newThreadAddress = address(new Thread(title, msg.sender)) */\n      swap1\n      pop\n        /* \"Thread.sol\":335:350  deployedThreads */\n      0x00\n        /* \"Thread.sol\":356:372  newThreadAddress */\n      dup2\n        /* \"Thread.sol\":335:373  deployedThreads.push(newThreadAddress) */\n      swap1\n      dup1\n      0x01\n      dup2\n      sload\n      add\n      dup1\n      dup3\n      sstore\n      dup1\n      swap2\n      pop\n      pop\n      0x01\n      swap1\n      sub\n      swap1\n      0x00\n      mstore\n      keccak256(0x00, 0x20)\n      add\n      0x00\n      swap1\n      swap2\n      swap1\n      swap2\n      swap1\n      swap2\n      0x0100\n      exp\n      dup2\n      sload\n      dup2\n      0xffffffffffffffffffffffffffffffffffffffff\n      mul\n      not\n      and\n      swap1\n      dup4\n      0xffffffffffffffffffffffffffffffffffffffff\n      and\n      mul\n      or\n      swap1\n      sstore\n      pop\n        /* \"Thread.sol\":389:421  ThreadCreation(newThreadAddress) */\n      0x89360f473a66a94be1b658d2eb891a03717a63e267fd5ea94ff69cd4b76a86ce\n        /* \"Thread.sol\":404:420  newThreadAddress */\n      dup2\n        /* \"Thread.sol\":389:421  ThreadCreation(newThreadAddress) */\n      mload(0x40)\n      tag_28\n      swap2\n      swap1\n      tag_11\n      jump\t// in\n    tag_28:\n      mload(0x40)\n      dup1\n      swap2\n      sub\n      swap1\n      log1\n        /* \"Thread.sol\":439:455  newThreadAddress */\n      dup1\n        /* \"Thread.sol\":432:455  return newThreadAddress */\n      swap2\n      pop\n      pop\n        /* \"Thread.sol\":175:463  function createThread(string memory title) public returns (address)\r... */\n      swap2\n      swap1\n      pop\n      jump\t// out\n        /* \"Thread.sol\":475:590  function getDeployedThreads() public view returns (address[] memory)\r... */\n    tag_13:\n        /* \"Thread.sol\":526:542  address[] memory */\n      0x60\n        /* \"Thread.sol\":567:582  deployedThreads */\n      0x00\n        /* \"Thread.sol\":560:582  return deployedThreads */\n      dup1\n      sload\n      dup1\n      0x20\n      mul\n      0x20\n      add\n      mload(0x40)\n      swap1\n      dup2\n      add\n      0x40\n      mstore\n      dup1\n      swap3\n      swap2\n      swap1\n      dup2\n      dup2\n      mstore\n      0x20\n      add\n      dup3\n      dup1\n      sload\n      dup1\n      iszero\n      tag_30\n      jumpi\n      0x20\n      mul\n      dup3\n      add\n      swap2\n      swap1\n      0x00\n      mstore\n      keccak256(0x00, 0x20)\n      swap1\n    tag_31:\n      dup2\n      0x00\n      swap1\n      sload\n      swap1\n      0x0100\n      exp\n      swap1\n      div\n      0xffffffffffffffffffffffffffffffffffffffff\n      and\n      0xffffffffffffffffffffffffffffffffffffffff\n      and\n      dup2\n      mstore\n      0x20\n      add\n      swap1\n      0x01\n      add\n      swap1\n      dup1\n      dup4\n      gt\n      tag_31\n      jumpi\n    tag_30:\n      pop\n      pop\n      pop\n      pop\n      pop\n      swap1\n      pop\n        /* \"Thread.sol\":475:590  function getDeployedThreads() public view returns (address[] memory)\r... */\n      swap1\n      jump\t// out\n        /* \"Thread.sol\":63:95  address[] public deployedThreads */\n    tag_19:\n      0x00\n      dup2\n      dup2\n      sload\n      dup2\n      lt\n      tag_32\n      jumpi\n      0x00\n      dup1\n      revert\n    tag_32:\n      swap1\n      0x00\n      mstore\n      keccak256(0x00, 0x20)\n      add\n      0x00\n      swap2\n      pop\n      sload\n      swap1\n      0x0100\n      exp\n      swap1\n      div\n      0xffffffffffffffffffffffffffffffffffffffff\n      and\n      dup2\n      jump\t// out\n    tag_23:\n      dataSize(sub_0)\n      dup1\n      dataOffset(sub_0)\n      dup4\n      codecopy\n      add\n      swap1\n      jump\t// out\n        /* \"#utility.yul\":7:419   */\n    tag_35:\n        /* \"#utility.yul\":85:90   */\n      0x00\n        /* \"#utility.yul\":110:176   */\n      tag_37\n        /* \"#utility.yul\":126:175   */\n      tag_38\n        /* \"#utility.yul\":168:174   */\n      dup5\n        /* \"#utility.yul\":126:175   */\n      tag_39\n      jump\t// in\n    tag_38:\n        /* \"#utility.yul\":110:176   */\n      tag_40\n      jump\t// in\n    tag_37:\n        /* \"#utility.yul\":101:176   */\n      swap1\n      pop\n        /* \"#utility.yul\":199:205   */\n      dup3\n        /* \"#utility.yul\":192:197   */\n      dup2\n        /* \"#utility.yul\":185:206   */\n      mstore\n        /* \"#utility.yul\":237:241   */\n      0x20\n        /* \"#utility.yul\":230:235   */\n      dup2\n        /* \"#utility.yul\":226:242   */\n      add\n        /* \"#utility.yul\":275:278   */\n      dup5\n        /* \"#utility.yul\":266:272   */\n      dup5\n        /* \"#utility.yul\":261:264   */\n      dup5\n        /* \"#utility.yul\":257:273   */\n      add\n        /* \"#utility.yul\":254:279   */\n      gt\n        /* \"#utility.yul\":251:253   */\n      iszero\n      tag_41\n      jumpi\n        /* \"#utility.yul\":282:361   */\n      tag_42\n      tag_43\n      jump\t// in\n    tag_42:\n        /* \"#utility.yul\":251:253   */\n    tag_41:\n        /* \"#utility.yul\":372:413   */\n      tag_44\n        /* \"#utility.yul\":406:412   */\n      dup5\n        /* \"#utility.yul\":401:404   */\n      dup3\n        /* \"#utility.yul\":396:399   */\n      dup6\n        /* \"#utility.yul\":372:413   */\n      tag_45\n      jump\t// in\n    tag_44:\n        /* \"#utility.yul\":91:419   */\n      pop\n      swap4\n      swap3\n      pop\n      pop\n      pop\n      jump\t// out\n        /* \"#utility.yul\":439:779   */\n    tag_46:\n        /* \"#utility.yul\":495:500   */\n      0x00\n        /* \"#utility.yul\":544:547   */\n      dup3\n        /* \"#utility.yul\":537:541   */\n      0x1f\n        /* \"#utility.yul\":529:535   */\n      dup4\n        /* \"#utility.yul\":525:542   */\n      add\n        /* \"#utility.yul\":521:548   */\n      slt\n        /* \"#utility.yul\":511:513   */\n      tag_48\n      jumpi\n        /* \"#utility.yul\":552:631   */\n      tag_49\n      tag_50\n      jump\t// in\n    tag_49:\n        /* \"#utility.yul\":511:513   */\n    tag_48:\n        /* \"#utility.yul\":669:675   */\n      dup2\n        /* \"#utility.yul\":656:676   */\n      calldataload\n        /* \"#utility.yul\":694:773   */\n      tag_51\n        /* \"#utility.yul\":769:772   */\n      dup5\n        /* \"#utility.yul\":761:767   */\n      dup3\n        /* \"#utility.yul\":754:758   */\n      0x20\n        /* \"#utility.yul\":746:752   */\n      dup7\n        /* \"#utility.yul\":742:759   */\n      add\n        /* \"#utility.yul\":694:773   */\n      tag_35\n      jump\t// in\n    tag_51:\n        /* \"#utility.yul\":685:773   */\n      swap2\n      pop\n        /* \"#utility.yul\":501:779   */\n      pop\n      swap3\n      swap2\n      pop\n      pop\n      jump\t// out\n        /* \"#utility.yul\":785:924   */\n    tag_52:\n        /* \"#utility.yul\":831:836   */\n      0x00\n        /* \"#utility.yul\":869:875   */\n      dup2\n        /* \"#utility.yul\":856:876   */\n      calldataload\n        /* \"#utility.yul\":847:876   */\n      swap1\n      pop\n        /* \"#utility.yul\":885:918   */\n      tag_54\n        /* \"#utility.yul\":912:917   */\n      dup2\n        /* \"#utility.yul\":885:918   */\n      tag_55\n      jump\t// in\n    tag_54:\n        /* \"#utility.yul\":837:924   */\n      swap3\n      swap2\n      pop\n      pop\n      jump\t// out\n        /* \"#utility.yul\":930:1439   */\n    tag_8:\n        /* \"#utility.yul\":999:1005   */\n      0x00\n        /* \"#utility.yul\":1048:1050   */\n      0x20\n        /* \"#utility.yul\":1036:1045   */\n      dup3\n        /* \"#utility.yul\":1027:1034   */\n      dup5\n        /* \"#utility.yul\":1023:1046   */\n      sub\n        /* \"#utility.yul\":1019:1051   */\n      slt\n        /* \"#utility.yul\":1016:1018   */\n      iszero\n      tag_57\n      jumpi\n        /* \"#utility.yul\":1054:1133   */\n      tag_58\n      tag_59\n      jump\t// in\n    tag_58:\n        /* \"#utility.yul\":1016:1018   */\n    tag_57:\n        /* \"#utility.yul\":1202:1203   */\n      0x00\n        /* \"#utility.yul\":1191:1200   */\n      dup3\n        /* \"#utility.yul\":1187:1204   */\n      add\n        /* \"#utility.yul\":1174:1205   */\n      calldataload\n        /* \"#utility.yul\":1232:1250   */\n      0xffffffffffffffff\n        /* \"#utility.yul\":1224:1230   */\n      dup2\n        /* \"#utility.yul\":1221:1251   */\n      gt\n        /* \"#utility.yul\":1218:1220   */\n      iszero\n      tag_60\n      jumpi\n        /* \"#utility.yul\":1254:1333   */\n      tag_61\n      tag_62\n      jump\t// in\n    tag_61:\n        /* \"#utility.yul\":1218:1220   */\n    tag_60:\n        /* \"#utility.yul\":1359:1422   */\n      tag_63\n        /* \"#utility.yul\":1414:1421   */\n      dup5\n        /* \"#utility.yul\":1405:1411   */\n      dup3\n        /* \"#utility.yul\":1394:1403   */\n      dup6\n        /* \"#utility.yul\":1390:1412   */\n      add\n        /* \"#utility.yul\":1359:1422   */\n      tag_46\n      jump\t// in\n    tag_63:\n        /* \"#utility.yul\":1349:1422   */\n      swap2\n      pop\n        /* \"#utility.yul\":1145:1432   */\n      pop\n        /* \"#utility.yul\":1006:1439   */\n      swap3\n      swap2\n      pop\n      pop\n      jump\t// out\n        /* \"#utility.yul\":1445:1774   */\n    tag_18:\n        /* \"#utility.yul\":1504:1510   */\n      0x00\n        /* \"#utility.yul\":1553:1555   */\n      0x20\n        /* \"#utility.yul\":1541:1550   */\n      dup3\n        /* \"#utility.yul\":1532:1539   */\n      dup5\n        /* \"#utility.yul\":1528:1551   */\n      sub\n        /* \"#utility.yul\":1524:1556   */\n      slt\n        /* \"#utility.yul\":1521:1523   */\n      iszero\n      tag_65\n      jumpi\n        /* \"#utility.yul\":1559:1638   */\n      tag_66\n      tag_59\n      jump\t// in\n    tag_66:\n        /* \"#utility.yul\":1521:1523   */\n    tag_65:\n        /* \"#utility.yul\":1679:1680   */\n      0x00\n        /* \"#utility.yul\":1704:1757   */\n      tag_67\n        /* \"#utility.yul\":1749:1756   */\n      dup5\n        /* \"#utility.yul\":1740:1746   */\n      dup3\n        /* \"#utility.yul\":1729:1738   */\n      dup6\n        /* \"#utility.yul\":1725:1747   */\n      add\n        /* \"#utility.yul\":1704:1757   */\n      tag_52\n      jump\t// in\n    tag_67:\n        /* \"#utility.yul\":1694:1757   */\n      swap2\n      pop\n        /* \"#utility.yul\":1650:1767   */\n      pop\n        /* \"#utility.yul\":1511:1774   */\n      swap3\n      swap2\n      pop\n      pop\n      jump\t// out\n        /* \"#utility.yul\":1780:1959   */\n    tag_68:\n        /* \"#utility.yul\":1849:1859   */\n      0x00\n        /* \"#utility.yul\":1870:1916   */\n      tag_70\n        /* \"#utility.yul\":1912:1915   */\n      dup4\n        /* \"#utility.yul\":1904:1910   */\n      dup4\n        /* \"#utility.yul\":1870:1916   */\n      tag_71\n      jump\t// in\n    tag_70:\n        /* \"#utility.yul\":1948:1952   */\n      0x20\n        /* \"#utility.yul\":1943:1946   */\n      dup4\n        /* \"#utility.yul\":1939:1953   */\n      add\n        /* \"#utility.yul\":1925:1953   */\n      swap1\n      pop\n        /* \"#utility.yul\":1860:1959   */\n      swap3\n      swap2\n      pop\n      pop\n      jump\t// out\n        /* \"#utility.yul\":1965:2073   */\n    tag_71:\n        /* \"#utility.yul\":2042:2066   */\n      tag_73\n        /* \"#utility.yul\":2060:2065   */\n      dup2\n        /* \"#utility.yul\":2042:2066   */\n      tag_74\n      jump\t// in\n    tag_73:\n        /* \"#utility.yul\":2037:2040   */\n      dup3\n        /* \"#utility.yul\":2030:2067   */\n      mstore\n        /* \"#utility.yul\":2020:2073   */\n      pop\n      pop\n      jump\t// out\n        /* \"#utility.yul\":2079:2197   */\n    tag_75:\n        /* \"#utility.yul\":2166:2190   */\n      tag_77\n        /* \"#utility.yul\":2184:2189   */\n      dup2\n        /* \"#utility.yul\":2166:2190   */\n      tag_74\n      jump\t// in\n    tag_77:\n        /* \"#utility.yul\":2161:2164   */\n      dup3\n        /* \"#utility.yul\":2154:2191   */\n      mstore\n        /* \"#utility.yul\":2144:2197   */\n      pop\n      pop\n      jump\t// out\n        /* \"#utility.yul\":2233:2965   */\n    tag_78:\n        /* \"#utility.yul\":2352:2355   */\n      0x00\n        /* \"#utility.yul\":2381:2435   */\n      tag_80\n        /* \"#utility.yul\":2429:2434   */\n      dup3\n        /* \"#utility.yul\":2381:2435   */\n      tag_81\n      jump\t// in\n    tag_80:\n        /* \"#utility.yul\":2451:2537   */\n      tag_82\n        /* \"#utility.yul\":2530:2536   */\n      dup2\n        /* \"#utility.yul\":2525:2528   */\n      dup6\n        /* \"#utility.yul\":2451:2537   */\n      tag_83\n      jump\t// in\n    tag_82:\n        /* \"#utility.yul\":2444:2537   */\n      swap4\n      pop\n        /* \"#utility.yul\":2561:2617   */\n      tag_84\n        /* \"#utility.yul\":2611:2616   */\n      dup4\n        /* \"#utility.yul\":2561:2617   */\n      tag_85\n      jump\t// in\n    tag_84:\n        /* \"#utility.yul\":2640:2647   */\n      dup1\n        /* \"#utility.yul\":2671:2672   */\n      0x00\n        /* \"#utility.yul\":2656:2940   */\n    tag_86:\n        /* \"#utility.yul\":2681:2687   */\n      dup4\n        /* \"#utility.yul\":2678:2679   */\n      dup2\n        /* \"#utility.yul\":2675:2688   */\n      lt\n        /* \"#utility.yul\":2656:2940   */\n      iszero\n      tag_88\n      jumpi\n        /* \"#utility.yul\":2757:2763   */\n      dup2\n        /* \"#utility.yul\":2751:2764   */\n      mload\n        /* \"#utility.yul\":2784:2847   */\n      tag_89\n        /* \"#utility.yul\":2843:2846   */\n      dup9\n        /* \"#utility.yul\":2828:2841   */\n      dup3\n        /* \"#utility.yul\":2784:2847   */\n      tag_68\n      jump\t// in\n    tag_89:\n        /* \"#utility.yul\":2777:2847   */\n      swap8\n      pop\n        /* \"#utility.yul\":2870:2930   */\n      tag_90\n        /* \"#utility.yul\":2923:2929   */\n      dup4\n        /* \"#utility.yul\":2870:2930   */\n      tag_91\n      jump\t// in\n    tag_90:\n        /* \"#utility.yul\":2860:2930   */\n      swap3\n      pop\n        /* \"#utility.yul\":2716:2940   */\n      pop\n        /* \"#utility.yul\":2703:2704   */\n      0x01\n        /* \"#utility.yul\":2700:2701   */\n      dup2\n        /* \"#utility.yul\":2696:2705   */\n      add\n        /* \"#utility.yul\":2691:2705   */\n      swap1\n      pop\n        /* \"#utility.yul\":2656:2940   */\n      jump(tag_86)\n    tag_88:\n        /* \"#utility.yul\":2660:2674   */\n      pop\n        /* \"#utility.yul\":2956:2959   */\n      dup6\n        /* \"#utility.yul\":2949:2959   */\n      swap4\n      pop\n        /* \"#utility.yul\":2357:2965   */\n      pop\n      pop\n      pop\n      swap3\n      swap2\n      pop\n      pop\n      jump\t// out\n        /* \"#utility.yul\":2971:3335   */\n    tag_92:\n        /* \"#utility.yul\":3059:3062   */\n      0x00\n        /* \"#utility.yul\":3087:3126   */\n      tag_94\n        /* \"#utility.yul\":3120:3125   */\n      dup3\n        /* \"#utility.yul\":3087:3126   */\n      tag_95\n      jump\t// in\n    tag_94:\n        /* \"#utility.yul\":3142:3213   */\n      tag_96\n        /* \"#utility.yul\":3206:3212   */\n      dup2\n        /* \"#utility.yul\":3201:3204   */\n      dup6\n        /* \"#utility.yul\":3142:3213   */\n      tag_97\n      jump\t// in\n    tag_96:\n        /* \"#utility.yul\":3135:3213   */\n      swap4\n      pop\n        /* \"#utility.yul\":3222:3274   */\n      tag_98\n        /* \"#utility.yul\":3267:3273   */\n      dup2\n        /* \"#utility.yul\":3262:3265   */\n      dup6\n        /* \"#utility.yul\":3255:3259   */\n      0x20\n        /* \"#utility.yul\":3248:3253   */\n      dup7\n        /* \"#utility.yul\":3244:3260   */\n      add\n        /* \"#utility.yul\":3222:3274   */\n      tag_99\n      jump\t// in\n    tag_98:\n        /* \"#utility.yul\":3299:3328   */\n      tag_100\n        /* \"#utility.yul\":3321:3327   */\n      dup2\n        /* \"#utility.yul\":3299:3328   */\n      tag_101\n      jump\t// in\n    tag_100:\n        /* \"#utility.yul\":3294:3297   */\n      dup5\n        /* \"#utility.yul\":3290:3329   */\n      add\n        /* \"#utility.yul\":3283:3329   */\n      swap2\n      pop\n        /* \"#utility.yul\":3063:3335   */\n      pop\n      swap3\n      swap2\n      pop\n      pop\n      jump\t// out\n        /* \"#utility.yul\":3341:3563   */\n    tag_11:\n        /* \"#utility.yul\":3434:3438   */\n      0x00\n        /* \"#utility.yul\":3472:3474   */\n      0x20\n        /* \"#utility.yul\":3461:3470   */\n      dup3\n        /* \"#utility.yul\":3457:3475   */\n      add\n        /* \"#utility.yul\":3449:3475   */\n      swap1\n      pop\n        /* \"#utility.yul\":3485:3556   */\n      tag_103\n        /* \"#utility.yul\":3553:3554   */\n      0x00\n        /* \"#utility.yul\":3542:3551   */\n      dup4\n        /* \"#utility.yul\":3538:3555   */\n      add\n        /* \"#utility.yul\":3529:3535   */\n      dup5\n        /* \"#utility.yul\":3485:3556   */\n      tag_75\n      jump\t// in\n    tag_103:\n        /* \"#utility.yul\":3439:3563   */\n      swap3\n      swap2\n      pop\n      pop\n      jump\t// out\n        /* \"#utility.yul\":3569:3942   */\n    tag_15:\n        /* \"#utility.yul\":3712:3716   */\n      0x00\n        /* \"#utility.yul\":3750:3752   */\n      0x20\n        /* \"#utility.yul\":3739:3748   */\n      dup3\n        /* \"#utility.yul\":3735:3753   */\n      add\n        /* \"#utility.yul\":3727:3753   */\n      swap1\n      pop\n        /* \"#utility.yul\":3799:3808   */\n      dup2\n        /* \"#utility.yul\":3793:3797   */\n      dup2\n        /* \"#utility.yul\":3789:3809   */\n      sub\n        /* \"#utility.yul\":3785:3786   */\n      0x00\n        /* \"#utility.yul\":3774:3783   */\n      dup4\n        /* \"#utility.yul\":3770:3787   */\n      add\n        /* \"#utility.yul\":3763:3810   */\n      mstore\n        /* \"#utility.yul\":3827:3935   */\n      tag_105\n        /* \"#utility.yul\":3930:3934   */\n      dup2\n        /* \"#utility.yul\":3921:3927   */\n      dup5\n        /* \"#utility.yul\":3827:3935   */\n      tag_78\n      jump\t// in\n    tag_105:\n        /* \"#utility.yul\":3819:3935   */\n      swap1\n      pop\n        /* \"#utility.yul\":3717:3942   */\n      swap3\n      swap2\n      pop\n      pop\n      jump\t// out\n        /* \"#utility.yul\":3948:4371   */\n    tag_25:\n        /* \"#utility.yul\":4089:4093   */\n      0x00\n        /* \"#utility.yul\":4127:4129   */\n      0x40\n        /* \"#utility.yul\":4116:4125   */\n      dup3\n        /* \"#utility.yul\":4112:4130   */\n      add\n        /* \"#utility.yul\":4104:4130   */\n      swap1\n      pop\n        /* \"#utility.yul\":4176:4185   */\n      dup2\n        /* \"#utility.yul\":4170:4174   */\n      dup2\n        /* \"#utility.yul\":4166:4186   */\n      sub\n        /* \"#utility.yul\":4162:4163   */\n      0x00\n        /* \"#utility.yul\":4151:4160   */\n      dup4\n        /* \"#utility.yul\":4147:4164   */\n      add\n        /* \"#utility.yul\":4140:4187   */\n      mstore\n        /* \"#utility.yul\":4204:4282   */\n      tag_107\n        /* \"#utility.yul\":4277:4281   */\n      dup2\n        /* \"#utility.yul\":4268:4274   */\n      dup6\n        /* \"#utility.yul\":4204:4282   */\n      tag_92\n      jump\t// in\n    tag_107:\n        /* \"#utility.yul\":4196:4282   */\n      swap1\n      pop\n        /* \"#utility.yul\":4292:4364   */\n      tag_108\n        /* \"#utility.yul\":4360:4362   */\n      0x20\n        /* \"#utility.yul\":4349:4358   */\n      dup4\n        /* \"#utility.yul\":4345:4363   */\n      add\n        /* \"#utility.yul\":4336:4342   */\n      dup5\n        /* \"#utility.yul\":4292:4364   */\n      tag_75\n      jump\t// in\n    tag_108:\n        /* \"#utility.yul\":4094:4371   */\n      swap4\n      swap3\n      pop\n      pop\n      pop\n      jump\t// out\n        /* \"#utility.yul\":4377:4506   */\n    tag_40:\n        /* \"#utility.yul\":4411:4417   */\n      0x00\n        /* \"#utility.yul\":4438:4458   */\n      tag_110\n      tag_111\n      jump\t// in\n    tag_110:\n        /* \"#utility.yul\":4428:4458   */\n      swap1\n      pop\n        /* \"#utility.yul\":4467:4500   */\n      tag_112\n        /* \"#utility.yul\":4495:4499   */\n      dup3\n        /* \"#utility.yul\":4487:4493   */\n      dup3\n        /* \"#utility.yul\":4467:4500   */\n      tag_113\n      jump\t// in\n    tag_112:\n        /* \"#utility.yul\":4418:4506   */\n      swap2\n      swap1\n      pop\n      jump\t// out\n        /* \"#utility.yul\":4512:4587   */\n    tag_111:\n        /* \"#utility.yul\":4545:4551   */\n      0x00\n        /* \"#utility.yul\":4578:4580   */\n      0x40\n        /* \"#utility.yul\":4572:4581   */\n      mload\n        /* \"#utility.yul\":4562:4581   */\n      swap1\n      pop\n        /* \"#utility.yul\":4552:4587   */\n      swap1\n      jump\t// out\n        /* \"#utility.yul\":4593:4901   */\n    tag_39:\n        /* \"#utility.yul\":4655:4659   */\n      0x00\n        /* \"#utility.yul\":4745:4763   */\n      0xffffffffffffffff\n        /* \"#utility.yul\":4737:4743   */\n      dup3\n        /* \"#utility.yul\":4734:4764   */\n      gt\n        /* \"#utility.yul\":4731:4733   */\n      iszero\n      tag_116\n      jumpi\n        /* \"#utility.yul\":4767:4785   */\n      tag_117\n      tag_118\n      jump\t// in\n    tag_117:\n        /* \"#utility.yul\":4731:4733   */\n    tag_116:\n        /* \"#utility.yul\":4805:4834   */\n      tag_119\n        /* \"#utility.yul\":4827:4833   */\n      dup3\n        /* \"#utility.yul\":4805:4834   */\n      tag_101\n      jump\t// in\n    tag_119:\n        /* \"#utility.yul\":4797:4834   */\n      swap1\n      pop\n        /* \"#utility.yul\":4889:4893   */\n      0x20\n        /* \"#utility.yul\":4883:4887   */\n      dup2\n        /* \"#utility.yul\":4879:4894   */\n      add\n        /* \"#utility.yul\":4871:4894   */\n      swap1\n      pop\n        /* \"#utility.yul\":4660:4901   */\n      swap2\n      swap1\n      pop\n      jump\t// out\n        /* \"#utility.yul\":4907:5039   */\n    tag_85:\n        /* \"#utility.yul\":4974:4978   */\n      0x00\n        /* \"#utility.yul\":4997:5000   */\n      dup2\n        /* \"#utility.yul\":4989:5000   */\n      swap1\n      pop\n        /* \"#utility.yul\":5027:5031   */\n      0x20\n        /* \"#utility.yul\":5022:5025   */\n      dup3\n        /* \"#utility.yul\":5018:5032   */\n      add\n        /* \"#utility.yul\":5010:5032   */\n      swap1\n      pop\n        /* \"#utility.yul\":4979:5039   */\n      swap2\n      swap1\n      pop\n      jump\t// out\n        /* \"#utility.yul\":5045:5159   */\n    tag_81:\n        /* \"#utility.yul\":5112:5118   */\n      0x00\n        /* \"#utility.yul\":5146:5151   */\n      dup2\n        /* \"#utility.yul\":5140:5152   */\n      mload\n        /* \"#utility.yul\":5130:5152   */\n      swap1\n      pop\n        /* \"#utility.yul\":5119:5159   */\n      swap2\n      swap1\n      pop\n      jump\t// out\n        /* \"#utility.yul\":5165:5264   */\n    tag_95:\n        /* \"#utility.yul\":5217:5223   */\n      0x00\n        /* \"#utility.yul\":5251:5256   */\n      dup2\n        /* \"#utility.yul\":5245:5257   */\n      mload\n        /* \"#utility.yul\":5235:5257   */\n      swap1\n      pop\n        /* \"#utility.yul\":5224:5264   */\n      swap2\n      swap1\n      pop\n      jump\t// out\n        /* \"#utility.yul\":5270:5383   */\n    tag_91:\n        /* \"#utility.yul\":5340:5344   */\n      0x00\n        /* \"#utility.yul\":5372:5376   */\n      0x20\n        /* \"#utility.yul\":5367:5370   */\n      dup3\n        /* \"#utility.yul\":5363:5377   */\n      add\n        /* \"#utility.yul\":5355:5377   */\n      swap1\n      pop\n        /* \"#utility.yul\":5345:5383   */\n      swap2\n      swap1\n      pop\n      jump\t// out\n        /* \"#utility.yul\":5389:5573   */\n    tag_83:\n        /* \"#utility.yul\":5488:5499   */\n      0x00\n        /* \"#utility.yul\":5522:5528   */\n      dup3\n        /* \"#utility.yul\":5517:5520   */\n      dup3\n        /* \"#utility.yul\":5510:5529   */\n      mstore\n        /* \"#utility.yul\":5562:5566   */\n      0x20\n        /* \"#utility.yul\":5557:5560   */\n      dup3\n        /* \"#utility.yul\":5553:5567   */\n      add\n        /* \"#utility.yul\":5538:5567   */\n      swap1\n      pop\n        /* \"#utility.yul\":5500:5573   */\n      swap3\n      swap2\n      pop\n      pop\n      jump\t// out\n        /* \"#utility.yul\":5579:5748   */\n    tag_97:\n        /* \"#utility.yul\":5663:5674   */\n      0x00\n        /* \"#utility.yul\":5697:5703   */\n      dup3\n        /* \"#utility.yul\":5692:5695   */\n      dup3\n        /* \"#utility.yul\":5685:5704   */\n      mstore\n        /* \"#utility.yul\":5737:5741   */\n      0x20\n        /* \"#utility.yul\":5732:5735   */\n      dup3\n        /* \"#utility.yul\":5728:5742   */\n      add\n        /* \"#utility.yul\":5713:5742   */\n      swap1\n      pop\n        /* \"#utility.yul\":5675:5748   */\n      swap3\n      swap2\n      pop\n      pop\n      jump\t// out\n        /* \"#utility.yul\":5754:5850   */\n    tag_74:\n        /* \"#utility.yul\":5791:5798   */\n      0x00\n        /* \"#utility.yul\":5820:5844   */\n      tag_127\n        /* \"#utility.yul\":5838:5843   */\n      dup3\n        /* \"#utility.yul\":5820:5844   */\n      tag_128\n      jump\t// in\n    tag_127:\n        /* \"#utility.yul\":5809:5844   */\n      swap1\n      pop\n        /* \"#utility.yul\":5799:5850   */\n      swap2\n      swap1\n      pop\n      jump\t// out\n        /* \"#utility.yul\":5856:5982   */\n    tag_128:\n        /* \"#utility.yul\":5893:5900   */\n      0x00\n        /* \"#utility.yul\":5933:5975   */\n      0xffffffffffffffffffffffffffffffffffffffff\n        /* \"#utility.yul\":5926:5931   */\n      dup3\n        /* \"#utility.yul\":5922:5976   */\n      and\n        /* \"#utility.yul\":5911:5976   */\n      swap1\n      pop\n        /* \"#utility.yul\":5901:5982   */\n      swap2\n      swap1\n      pop\n      jump\t// out\n        /* \"#utility.yul\":5988:6065   */\n    tag_130:\n        /* \"#utility.yul\":6025:6032   */\n      0x00\n        /* \"#utility.yul\":6054:6059   */\n      dup2\n        /* \"#utility.yul\":6043:6059   */\n      swap1\n      pop\n        /* \"#utility.yul\":6033:6065   */\n      swap2\n      swap1\n      pop\n      jump\t// out\n        /* \"#utility.yul\":6071:6225   */\n    tag_45:\n        /* \"#utility.yul\":6155:6161   */\n      dup3\n        /* \"#utility.yul\":6150:6153   */\n      dup2\n        /* \"#utility.yul\":6145:6148   */\n      dup4\n        /* \"#utility.yul\":6132:6162   */\n      calldatacopy\n        /* \"#utility.yul\":6217:6218   */\n      0x00\n        /* \"#utility.yul\":6208:6214   */\n      dup4\n        /* \"#utility.yul\":6203:6206   */\n      dup4\n        /* \"#utility.yul\":6199:6215   */\n      add\n        /* \"#utility.yul\":6192:6219   */\n      mstore\n        /* \"#utility.yul\":6122:6225   */\n      pop\n      pop\n      pop\n      jump\t// out\n        /* \"#utility.yul\":6231:6538   */\n    tag_99:\n        /* \"#utility.yul\":6299:6300   */\n      0x00\n        /* \"#utility.yul\":6309:6422   */\n    tag_134:\n        /* \"#utility.yul\":6323:6329   */\n      dup4\n        /* \"#utility.yul\":6320:6321   */\n      dup2\n        /* \"#utility.yul\":6317:6330   */\n      lt\n        /* \"#utility.yul\":6309:6422   */\n      iszero\n      tag_136\n      jumpi\n        /* \"#utility.yul\":6408:6409   */\n      dup1\n        /* \"#utility.yul\":6403:6406   */\n      dup3\n        /* \"#utility.yul\":6399:6410   */\n      add\n        /* \"#utility.yul\":6393:6411   */\n      mload\n        /* \"#utility.yul\":6389:6390   */\n      dup2\n        /* \"#utility.yul\":6384:6387   */\n      dup5\n        /* \"#utility.yul\":6380:6391   */\n      add\n        /* \"#utility.yul\":6373:6412   */\n      mstore\n        /* \"#utility.yul\":6345:6347   */\n      0x20\n        /* \"#utility.yul\":6342:6343   */\n      dup2\n        /* \"#utility.yul\":6338:6348   */\n      add\n        /* \"#utility.yul\":6333:6348   */\n      swap1\n      pop\n        /* \"#utility.yul\":6309:6422   */\n      jump(tag_134)\n    tag_136:\n        /* \"#utility.yul\":6440:6446   */\n      dup4\n        /* \"#utility.yul\":6437:6438   */\n      dup2\n        /* \"#utility.yul\":6434:6447   */\n      gt\n        /* \"#utility.yul\":6431:6433   */\n      iszero\n      tag_137\n      jumpi\n        /* \"#utility.yul\":6520:6521   */\n      0x00\n        /* \"#utility.yul\":6511:6517   */\n      dup5\n        /* \"#utility.yul\":6506:6509   */\n      dup5\n        /* \"#utility.yul\":6502:6518   */\n      add\n        /* \"#utility.yul\":6495:6522   */\n      mstore\n        /* \"#utility.yul\":6431:6433   */\n    tag_137:\n        /* \"#utility.yul\":6280:6538   */\n      pop\n      pop\n      pop\n      pop\n      jump\t// out\n        /* \"#utility.yul\":6544:6825   */\n    tag_113:\n        /* \"#utility.yul\":6627:6654   */\n      tag_139\n        /* \"#utility.yul\":6649:6653   */\n      dup3\n        /* \"#utility.yul\":6627:6654   */\n      tag_101\n      jump\t// in\n    tag_139:\n        /* \"#utility.yul\":6619:6625   */\n      dup2\n        /* \"#utility.yul\":6615:6655   */\n      add\n        /* \"#utility.yul\":6757:6763   */\n      dup2\n        /* \"#utility.yul\":6745:6755   */\n      dup2\n        /* \"#utility.yul\":6742:6764   */\n      lt\n        /* \"#utility.yul\":6721:6739   */\n      0xffffffffffffffff\n        /* \"#utility.yul\":6709:6719   */\n      dup3\n        /* \"#utility.yul\":6706:6740   */\n      gt\n        /* \"#utility.yul\":6703:6765   */\n      or\n        /* \"#utility.yul\":6700:6702   */\n      iszero\n      tag_140\n      jumpi\n        /* \"#utility.yul\":6768:6786   */\n      tag_141\n      tag_118\n      jump\t// in\n    tag_141:\n        /* \"#utility.yul\":6700:6702   */\n    tag_140:\n        /* \"#utility.yul\":6808:6818   */\n      dup1\n        /* \"#utility.yul\":6804:6806   */\n      0x40\n        /* \"#utility.yul\":6797:6819   */\n      mstore\n        /* \"#utility.yul\":6587:6825   */\n      pop\n      pop\n      pop\n      jump\t// out\n        /* \"#utility.yul\":6831:7011   */\n    tag_118:\n        /* \"#utility.yul\":6879:6956   */\n      0x4e487b7100000000000000000000000000000000000000000000000000000000\n        /* \"#utility.yul\":6876:6877   */\n      0x00\n        /* \"#utility.yul\":6869:6957   */\n      mstore\n        /* \"#utility.yul\":6976:6980   */\n      0x41\n        /* \"#utility.yul\":6973:6974   */\n      0x04\n        /* \"#utility.yul\":6966:6981   */\n      mstore\n        /* \"#utility.yul\":7000:7004   */\n      0x24\n        /* \"#utility.yul\":6997:6998   */\n      0x00\n        /* \"#utility.yul\":6990:7005   */\n      revert\n        /* \"#utility.yul\":7017:7134   */\n    tag_50:\n        /* \"#utility.yul\":7126:7127   */\n      0x00\n        /* \"#utility.yul\":7123:7124   */\n      dup1\n        /* \"#utility.yul\":7116:7128   */\n      revert\n        /* \"#utility.yul\":7140:7257   */\n    tag_43:\n        /* \"#utility.yul\":7249:7250   */\n      0x00\n        /* \"#utility.yul\":7246:7247   */\n      dup1\n        /* \"#utility.yul\":7239:7251   */\n      revert\n        /* \"#utility.yul\":7263:7380   */\n    tag_62:\n        /* \"#utility.yul\":7372:7373   */\n      0x00\n        /* \"#utility.yul\":7369:7370   */\n      dup1\n        /* \"#utility.yul\":7362:7374   */\n      revert\n        /* \"#utility.yul\":7386:7503   */\n    tag_59:\n        /* \"#utility.yul\":7495:7496   */\n      0x00\n        /* \"#utility.yul\":7492:7493   */\n      dup1\n        /* \"#utility.yul\":7485:7497   */\n      revert\n        /* \"#utility.yul\":7509:7611   */\n    tag_101:\n        /* \"#utility.yul\":7550:7556   */\n      0x00\n        /* \"#utility.yul\":7601:7603   */\n      0x1f\n        /* \"#utility.yul\":7597:7604   */\n      not\n        /* \"#utility.yul\":7592:7594   */\n      0x1f\n        /* \"#utility.yul\":7585:7590   */\n      dup4\n        /* \"#utility.yul\":7581:7595   */\n      add\n        /* \"#utility.yul\":7577:7605   */\n      and\n        /* \"#utility.yul\":7567:7605   */\n      swap1\n      pop\n        /* \"#utility.yul\":7557:7611   */\n      swap2\n      swap1\n      pop\n      jump\t// out\n        /* \"#utility.yul\":7617:7739   */\n    tag_55:\n        /* \"#utility.yul\":7690:7714   */\n      tag_149\n        /* \"#utility.yul\":7708:7713   */\n      dup2\n        /* \"#utility.yul\":7690:7714   */\n      tag_130\n      jump\t// in\n    tag_149:\n        /* \"#utility.yul\":7683:7688   */\n      dup2\n        /* \"#utility.yul\":7680:7715   */\n      eq\n        /* \"#utility.yul\":7670:7672   */\n      tag_150\n      jumpi\n        /* \"#utility.yul\":7729:7730   */\n      0x00\n        /* \"#utility.yul\":7726:7727   */\n      dup1\n        /* \"#utility.yul\":7719:7731   */\n      revert\n        /* \"#utility.yul\":7670:7672   */\n    tag_150:\n        /* \"#utility.yul\":7660:7739   */\n      pop\n      jump\t// out\n    stop\n\n    sub_0: assembly {\n            /* \"Thread.sol\":605:1982  contract Thread{\r... */\n          mstore(0x40, 0x80)\n            /* \"Thread.sol\":1045:1263  constructor(string memory threadTitle, address creator) public {\r... */\n          callvalue\n          dup1\n          iszero\n          tag_1\n          jumpi\n          0x00\n          dup1\n          revert\n        tag_1:\n          pop\n          mload(0x40)\n          sub(codesize, bytecodeSize)\n          dup1\n          bytecodeSize\n          dup4\n          codecopy\n          dup2\n          dup2\n          add\n          0x40\n          mstore\n          dup2\n          add\n          swap1\n          tag_2\n          swap2\n          swap1\n          tag_3\n          jump\t// in\n        tag_2:\n            /* \"Thread.sol\":1139:1146  creator */\n          dup1\n            /* \"Thread.sol\":1129:1136  manager */\n          0x00\n          dup1\n            /* \"Thread.sol\":1129:1146  manager = creator */\n          0x0100\n          exp\n          dup2\n          sload\n          dup2\n          0xffffffffffffffffffffffffffffffffffffffff\n          mul\n          not\n          and\n          swap1\n          dup4\n          0xffffffffffffffffffffffffffffffffffffffff\n          and\n          mul\n          or\n          swap1\n          sstore\n          pop\n            /* \"Thread.sol\":1165:1176  threadTitle */\n          dup2\n            /* \"Thread.sol\":1157:1162  title */\n          0x01\n            /* \"Thread.sol\":1157:1176  title = threadTitle */\n          swap1\n          dup1\n          mload\n          swap1\n          0x20\n          add\n          swap1\n          tag_6\n          swap3\n          swap2\n          swap1\n          tag_7\n          jump\t// in\n        tag_6:\n          pop\n            /* \"Thread.sol\":1206:1221  block.timestamp */\n          timestamp\n            /* \"Thread.sol\":1187:1203  creationDateTime */\n          0x02\n            /* \"Thread.sol\":1187:1221  creationDateTime = block.timestamp */\n          dup2\n          swap1\n          sstore\n          pop\n            /* \"Thread.sol\":1241:1245  true */\n          0x01\n            /* \"Thread.sol\":1232:1238  active */\n          0x04\n          0x00\n            /* \"Thread.sol\":1232:1245  active = true */\n          0x0100\n          exp\n          dup2\n          sload\n          dup2\n          0xff\n          mul\n          not\n          and\n          swap1\n          dup4\n          iszero\n          iszero\n          mul\n          or\n          swap1\n          sstore\n          pop\n            /* \"Thread.sol\":1045:1263  constructor(string memory threadTitle, address creator) public {\r... */\n          pop\n          pop\n            /* \"Thread.sol\":605:1982  contract Thread{\r... */\n          jump(tag_8)\n        tag_7:\n          dup3\n          dup1\n          sload\n          tag_9\n          swap1\n          tag_10\n          jump\t// in\n        tag_9:\n          swap1\n          0x00\n          mstore\n          keccak256(0x00, 0x20)\n          swap1\n          0x1f\n          add\n          0x20\n          swap1\n          div\n          dup2\n          add\n          swap3\n          dup3\n          tag_12\n          jumpi\n          0x00\n          dup6\n          sstore\n          jump(tag_11)\n        tag_12:\n          dup3\n          0x1f\n          lt\n          tag_13\n          jumpi\n          dup1\n          mload\n          not(0xff)\n          and\n          dup4\n          dup1\n          add\n          or\n          dup6\n          sstore\n          jump(tag_11)\n        tag_13:\n          dup3\n          dup1\n          add\n          0x01\n          add\n          dup6\n          sstore\n          dup3\n          iszero\n          tag_11\n          jumpi\n          swap2\n          dup3\n          add\n        tag_14:\n          dup3\n          dup2\n          gt\n          iszero\n          tag_15\n          jumpi\n          dup3\n          mload\n          dup3\n          sstore\n          swap2\n          0x20\n          add\n          swap2\n          swap1\n          0x01\n          add\n          swap1\n          jump(tag_14)\n        tag_15:\n        tag_11:\n          pop\n          swap1\n          pop\n          tag_16\n          swap2\n          swap1\n          tag_17\n          jump\t// in\n        tag_16:\n          pop\n          swap1\n          jump\t// out\n        tag_17:\n        tag_18:\n          dup1\n          dup3\n          gt\n          iszero\n          tag_19\n          jumpi\n          0x00\n          dup2\n          0x00\n          swap1\n          sstore\n          pop\n          0x01\n          add\n          jump(tag_18)\n        tag_19:\n          pop\n          swap1\n          jump\t// out\n            /* \"#utility.yul\":7:428   */\n        tag_21:\n            /* \"#utility.yul\":96:101   */\n          0x00\n            /* \"#utility.yul\":121:187   */\n          tag_23\n            /* \"#utility.yul\":137:186   */\n          tag_24\n            /* \"#utility.yul\":179:185   */\n          dup5\n            /* \"#utility.yul\":137:186   */\n          tag_25\n          jump\t// in\n        tag_24:\n            /* \"#utility.yul\":121:187   */\n          tag_26\n          jump\t// in\n        tag_23:\n            /* \"#utility.yul\":112:187   */\n          swap1\n          pop\n            /* \"#utility.yul\":210:216   */\n          dup3\n            /* \"#utility.yul\":203:208   */\n          dup2\n            /* \"#utility.yul\":196:217   */\n          mstore\n            /* \"#utility.yul\":248:252   */\n          0x20\n            /* \"#utility.yul\":241:246   */\n          dup2\n            /* \"#utility.yul\":237:253   */\n          add\n            /* \"#utility.yul\":286:289   */\n          dup5\n            /* \"#utility.yul\":277:283   */\n          dup5\n            /* \"#utility.yul\":272:275   */\n          dup5\n            /* \"#utility.yul\":268:284   */\n          add\n            /* \"#utility.yul\":265:290   */\n          gt\n            /* \"#utility.yul\":262:264   */\n          iszero\n          tag_27\n          jumpi\n            /* \"#utility.yul\":293:372   */\n          tag_28\n          tag_29\n          jump\t// in\n        tag_28:\n            /* \"#utility.yul\":262:264   */\n        tag_27:\n            /* \"#utility.yul\":383:422   */\n          tag_30\n            /* \"#utility.yul\":415:421   */\n          dup5\n            /* \"#utility.yul\":410:413   */\n          dup3\n            /* \"#utility.yul\":405:408   */\n          dup6\n            /* \"#utility.yul\":383:422   */\n          tag_31\n          jump\t// in\n        tag_30:\n            /* \"#utility.yul\":102:428   */\n          pop\n          swap4\n          swap3\n          pop\n          pop\n          pop\n          jump\t// out\n            /* \"#utility.yul\":434:577   */\n        tag_32:\n            /* \"#utility.yul\":491:496   */\n          0x00\n            /* \"#utility.yul\":522:528   */\n          dup2\n            /* \"#utility.yul\":516:529   */\n          mload\n            /* \"#utility.yul\":507:529   */\n          swap1\n          pop\n            /* \"#utility.yul\":538:571   */\n          tag_34\n            /* \"#utility.yul\":565:570   */\n          dup2\n            /* \"#utility.yul\":538:571   */\n          tag_35\n          jump\t// in\n        tag_34:\n            /* \"#utility.yul\":497:577   */\n          swap3\n          swap2\n          pop\n          pop\n          jump\t// out\n            /* \"#utility.yul\":597:952   */\n        tag_36:\n            /* \"#utility.yul\":664:669   */\n          0x00\n            /* \"#utility.yul\":713:716   */\n          dup3\n            /* \"#utility.yul\":706:710   */\n          0x1f\n            /* \"#utility.yul\":698:704   */\n          dup4\n            /* \"#utility.yul\":694:711   */\n          add\n            /* \"#utility.yul\":690:717   */\n          slt\n            /* \"#utility.yul\":680:682   */\n          tag_38\n          jumpi\n            /* \"#utility.yul\":721:800   */\n          tag_39\n          tag_40\n          jump\t// in\n        tag_39:\n            /* \"#utility.yul\":680:682   */\n        tag_38:\n            /* \"#utility.yul\":831:837   */\n          dup2\n            /* \"#utility.yul\":825:838   */\n          mload\n            /* \"#utility.yul\":856:946   */\n          tag_41\n            /* \"#utility.yul\":942:945   */\n          dup5\n            /* \"#utility.yul\":934:940   */\n          dup3\n            /* \"#utility.yul\":927:931   */\n          0x20\n            /* \"#utility.yul\":919:925   */\n          dup7\n            /* \"#utility.yul\":915:932   */\n          add\n            /* \"#utility.yul\":856:946   */\n          tag_21\n          jump\t// in\n        tag_41:\n            /* \"#utility.yul\":847:946   */\n          swap2\n          pop\n            /* \"#utility.yul\":670:952   */\n          pop\n          swap3\n          swap2\n          pop\n          pop\n          jump\t// out\n            /* \"#utility.yul\":958:1638   */\n        tag_3:\n            /* \"#utility.yul\":1047:1053   */\n          0x00\n            /* \"#utility.yul\":1055:1061   */\n          dup1\n            /* \"#utility.yul\":1104:1106   */\n          0x40\n            /* \"#utility.yul\":1092:1101   */\n          dup4\n            /* \"#utility.yul\":1083:1090   */\n          dup6\n            /* \"#utility.yul\":1079:1102   */\n          sub\n            /* \"#utility.yul\":1075:1107   */\n          slt\n            /* \"#utility.yul\":1072:1074   */\n          iszero\n          tag_43\n          jumpi\n            /* \"#utility.yul\":1110:1189   */\n          tag_44\n          tag_45\n          jump\t// in\n        tag_44:\n            /* \"#utility.yul\":1072:1074   */\n        tag_43:\n            /* \"#utility.yul\":1251:1252   */\n          0x00\n            /* \"#utility.yul\":1240:1249   */\n          dup4\n            /* \"#utility.yul\":1236:1253   */\n          add\n            /* \"#utility.yul\":1230:1254   */\n          mload\n            /* \"#utility.yul\":1281:1299   */\n          0xffffffffffffffff\n            /* \"#utility.yul\":1273:1279   */\n          dup2\n            /* \"#utility.yul\":1270:1300   */\n          gt\n            /* \"#utility.yul\":1267:1269   */\n          iszero\n          tag_46\n          jumpi\n            /* \"#utility.yul\":1303:1382   */\n          tag_47\n          tag_48\n          jump\t// in\n        tag_47:\n            /* \"#utility.yul\":1267:1269   */\n        tag_46:\n            /* \"#utility.yul\":1408:1482   */\n          tag_49\n            /* \"#utility.yul\":1474:1481   */\n          dup6\n            /* \"#utility.yul\":1465:1471   */\n          dup3\n            /* \"#utility.yul\":1454:1463   */\n          dup7\n            /* \"#utility.yul\":1450:1472   */\n          add\n            /* \"#utility.yul\":1408:1482   */\n          tag_36\n          jump\t// in\n        tag_49:\n            /* \"#utility.yul\":1398:1482   */\n          swap3\n          pop\n            /* \"#utility.yul\":1201:1492   */\n          pop\n            /* \"#utility.yul\":1531:1533   */\n          0x20\n            /* \"#utility.yul\":1557:1621   */\n          tag_50\n            /* \"#utility.yul\":1613:1620   */\n          dup6\n            /* \"#utility.yul\":1604:1610   */\n          dup3\n            /* \"#utility.yul\":1593:1602   */\n          dup7\n            /* \"#utility.yul\":1589:1611   */\n          add\n            /* \"#utility.yul\":1557:1621   */\n          tag_32\n          jump\t// in\n        tag_50:\n            /* \"#utility.yul\":1547:1621   */\n          swap2\n          pop\n            /* \"#utility.yul\":1502:1631   */\n          pop\n            /* \"#utility.yul\":1062:1638   */\n          swap3\n          pop\n          swap3\n          swap1\n          pop\n          jump\t// out\n            /* \"#utility.yul\":1644:1773   */\n        tag_26:\n            /* \"#utility.yul\":1678:1684   */\n          0x00\n            /* \"#utility.yul\":1705:1725   */\n          tag_52\n          tag_53\n          jump\t// in\n        tag_52:\n            /* \"#utility.yul\":1695:1725   */\n          swap1\n          pop\n            /* \"#utility.yul\":1734:1767   */\n          tag_54\n            /* \"#utility.yul\":1762:1766   */\n          dup3\n            /* \"#utility.yul\":1754:1760   */\n          dup3\n            /* \"#utility.yul\":1734:1767   */\n          tag_55\n          jump\t// in\n        tag_54:\n            /* \"#utility.yul\":1685:1773   */\n          swap2\n          swap1\n          pop\n          jump\t// out\n            /* \"#utility.yul\":1779:1854   */\n        tag_53:\n            /* \"#utility.yul\":1812:1818   */\n          0x00\n            /* \"#utility.yul\":1845:1847   */\n          0x40\n            /* \"#utility.yul\":1839:1848   */\n          mload\n            /* \"#utility.yul\":1829:1848   */\n          swap1\n          pop\n            /* \"#utility.yul\":1819:1854   */\n          swap1\n          jump\t// out\n            /* \"#utility.yul\":1860:2168   */\n        tag_25:\n            /* \"#utility.yul\":1922:1926   */\n          0x00\n            /* \"#utility.yul\":2012:2030   */\n          0xffffffffffffffff\n            /* \"#utility.yul\":2004:2010   */\n          dup3\n            /* \"#utility.yul\":2001:2031   */\n          gt\n            /* \"#utility.yul\":1998:2000   */\n          iszero\n          tag_58\n          jumpi\n            /* \"#utility.yul\":2034:2052   */\n          tag_59\n          tag_60\n          jump\t// in\n        tag_59:\n            /* \"#utility.yul\":1998:2000   */\n        tag_58:\n            /* \"#utility.yul\":2072:2101   */\n          tag_61\n            /* \"#utility.yul\":2094:2100   */\n          dup3\n            /* \"#utility.yul\":2072:2101   */\n          tag_62\n          jump\t// in\n        tag_61:\n            /* \"#utility.yul\":2064:2101   */\n          swap1\n          pop\n            /* \"#utility.yul\":2156:2160   */\n          0x20\n            /* \"#utility.yul\":2150:2154   */\n          dup2\n            /* \"#utility.yul\":2146:2161   */\n          add\n            /* \"#utility.yul\":2138:2161   */\n          swap1\n          pop\n            /* \"#utility.yul\":1927:2168   */\n          swap2\n          swap1\n          pop\n          jump\t// out\n            /* \"#utility.yul\":2174:2270   */\n        tag_63:\n            /* \"#utility.yul\":2211:2218   */\n          0x00\n            /* \"#utility.yul\":2240:2264   */\n          tag_65\n            /* \"#utility.yul\":2258:2263   */\n          dup3\n            /* \"#utility.yul\":2240:2264   */\n          tag_66\n          jump\t// in\n        tag_65:\n            /* \"#utility.yul\":2229:2264   */\n          swap1\n          pop\n            /* \"#utility.yul\":2219:2270   */\n          swap2\n          swap1\n          pop\n          jump\t// out\n            /* \"#utility.yul\":2276:2402   */\n        tag_66:\n            /* \"#utility.yul\":2313:2320   */\n          0x00\n            /* \"#utility.yul\":2353:2395   */\n          0xffffffffffffffffffffffffffffffffffffffff\n            /* \"#utility.yul\":2346:2351   */\n          dup3\n            /* \"#utility.yul\":2342:2396   */\n          and\n            /* \"#utility.yul\":2331:2396   */\n          swap1\n          pop\n            /* \"#utility.yul\":2321:2402   */\n          swap2\n          swap1\n          pop\n          jump\t// out\n            /* \"#utility.yul\":2408:2715   */\n        tag_31:\n            /* \"#utility.yul\":2476:2477   */\n          0x00\n            /* \"#utility.yul\":2486:2599   */\n        tag_69:\n            /* \"#utility.yul\":2500:2506   */\n          dup4\n            /* \"#utility.yul\":2497:2498   */\n          dup2\n            /* \"#utility.yul\":2494:2507   */\n          lt\n            /* \"#utility.yul\":2486:2599   */\n          iszero\n          tag_71\n          jumpi\n            /* \"#utility.yul\":2585:2586   */\n          dup1\n            /* \"#utility.yul\":2580:2583   */\n          dup3\n            /* \"#utility.yul\":2576:2587   */\n          add\n            /* \"#utility.yul\":2570:2588   */\n          mload\n            /* \"#utility.yul\":2566:2567   */\n          dup2\n            /* \"#utility.yul\":2561:2564   */\n          dup5\n            /* \"#utility.yul\":2557:2568   */\n          add\n            /* \"#utility.yul\":2550:2589   */\n          mstore\n            /* \"#utility.yul\":2522:2524   */\n          0x20\n            /* \"#utility.yul\":2519:2520   */\n          dup2\n            /* \"#utility.yul\":2515:2525   */\n          add\n            /* \"#utility.yul\":2510:2525   */\n          swap1\n          pop\n            /* \"#utility.yul\":2486:2599   */\n          jump(tag_69)\n        tag_71:\n            /* \"#utility.yul\":2617:2623   */\n          dup4\n            /* \"#utility.yul\":2614:2615   */\n          dup2\n            /* \"#utility.yul\":2611:2624   */\n          gt\n            /* \"#utility.yul\":2608:2610   */\n          iszero\n          tag_72\n          jumpi\n            /* \"#utility.yul\":2697:2698   */\n          0x00\n            /* \"#utility.yul\":2688:2694   */\n          dup5\n            /* \"#utility.yul\":2683:2686   */\n          dup5\n            /* \"#utility.yul\":2679:2695   */\n          add\n            /* \"#utility.yul\":2672:2699   */\n          mstore\n            /* \"#utility.yul\":2608:2610   */\n        tag_72:\n            /* \"#utility.yul\":2457:2715   */\n          pop\n          pop\n          pop\n          pop\n          jump\t// out\n            /* \"#utility.yul\":2721:3041   */\n        tag_10:\n            /* \"#utility.yul\":2765:2771   */\n          0x00\n            /* \"#utility.yul\":2802:2803   */\n          0x02\n            /* \"#utility.yul\":2796:2800   */\n          dup3\n            /* \"#utility.yul\":2792:2804   */\n          div\n            /* \"#utility.yul\":2782:2804   */\n          swap1\n          pop\n            /* \"#utility.yul\":2849:2850   */\n          0x01\n            /* \"#utility.yul\":2843:2847   */\n          dup3\n            /* \"#utility.yul\":2839:2851   */\n          and\n            /* \"#utility.yul\":2870:2888   */\n          dup1\n            /* \"#utility.yul\":2860:2862   */\n          tag_74\n          jumpi\n            /* \"#utility.yul\":2926:2930   */\n          0x7f\n            /* \"#utility.yul\":2918:2924   */\n          dup3\n            /* \"#utility.yul\":2914:2931   */\n          and\n            /* \"#utility.yul\":2904:2931   */\n          swap2\n          pop\n            /* \"#utility.yul\":2860:2862   */\n        tag_74:\n            /* \"#utility.yul\":2988:2990   */\n          0x20\n            /* \"#utility.yul\":2980:2986   */\n          dup3\n            /* \"#utility.yul\":2977:2991   */\n          lt\n            /* \"#utility.yul\":2957:2975   */\n          dup2\n            /* \"#utility.yul\":2954:2992   */\n          eq\n            /* \"#utility.yul\":2951:2953   */\n          iszero\n          tag_75\n          jumpi\n            /* \"#utility.yul\":3007:3025   */\n          tag_76\n          tag_77\n          jump\t// in\n        tag_76:\n            /* \"#utility.yul\":2951:2953   */\n        tag_75:\n            /* \"#utility.yul\":2772:3041   */\n          pop\n          swap2\n          swap1\n          pop\n          jump\t// out\n            /* \"#utility.yul\":3047:3328   */\n        tag_55:\n            /* \"#utility.yul\":3130:3157   */\n          tag_79\n            /* \"#utility.yul\":3152:3156   */\n          dup3\n            /* \"#utility.yul\":3130:3157   */\n          tag_62\n          jump\t// in\n        tag_79:\n            /* \"#utility.yul\":3122:3128   */\n          dup2\n            /* \"#utility.yul\":3118:3158   */\n          add\n            /* \"#utility.yul\":3260:3266   */\n          dup2\n            /* \"#utility.yul\":3248:3258   */\n          dup2\n            /* \"#utility.yul\":3245:3267   */\n          lt\n            /* \"#utility.yul\":3224:3242   */\n          0xffffffffffffffff\n            /* \"#utility.yul\":3212:3222   */\n          dup3\n            /* \"#utility.yul\":3209:3243   */\n          gt\n            /* \"#utility.yul\":3206:3268   */\n          or\n            /* \"#utility.yul\":3203:3205   */\n          iszero\n          tag_80\n          jumpi\n            /* \"#utility.yul\":3271:3289   */\n          tag_81\n          tag_60\n          jump\t// in\n        tag_81:\n            /* \"#utility.yul\":3203:3205   */\n        tag_80:\n            /* \"#utility.yul\":3311:3321   */\n          dup1\n            /* \"#utility.yul\":3307:3309   */\n          0x40\n            /* \"#utility.yul\":3300:3322   */\n          mstore\n            /* \"#utility.yul\":3090:3328   */\n          pop\n          pop\n          pop\n          jump\t// out\n            /* \"#utility.yul\":3334:3514   */\n        tag_77:\n            /* \"#utility.yul\":3382:3459   */\n          0x4e487b7100000000000000000000000000000000000000000000000000000000\n            /* \"#utility.yul\":3379:3380   */\n          0x00\n            /* \"#utility.yul\":3372:3460   */\n          mstore\n            /* \"#utility.yul\":3479:3483   */\n          0x22\n            /* \"#utility.yul\":3476:3477   */\n          0x04\n            /* \"#utility.yul\":3469:3484   */\n          mstore\n            /* \"#utility.yul\":3503:3507   */\n          0x24\n            /* \"#utility.yul\":3500:3501   */\n          0x00\n            /* \"#utility.yul\":3493:3508   */\n          revert\n            /* \"#utility.yul\":3520:3700   */\n        tag_60:\n            /* \"#utility.yul\":3568:3645   */\n          0x4e487b7100000000000000000000000000000000000000000000000000000000\n            /* \"#utility.yul\":3565:3566   */\n          0x00\n            /* \"#utility.yul\":3558:3646   */\n          mstore\n            /* \"#utility.yul\":3665:3669   */\n          0x41\n            /* \"#utility.yul\":3662:3663   */\n          0x04\n            /* \"#utility.yul\":3655:3670   */\n          mstore\n            /* \"#utility.yul\":3689:3693   */\n          0x24\n            /* \"#utility.yul\":3686:3687   */\n          0x00\n            /* \"#utility.yul\":3679:3694   */\n          revert\n            /* \"#utility.yul\":3706:3823   */\n        tag_40:\n            /* \"#utility.yul\":3815:3816   */\n          0x00\n            /* \"#utility.yul\":3812:3813   */\n          dup1\n            /* \"#utility.yul\":3805:3817   */\n          revert\n            /* \"#utility.yul\":3829:3946   */\n        tag_29:\n            /* \"#utility.yul\":3938:3939   */\n          0x00\n            /* \"#utility.yul\":3935:3936   */\n          dup1\n            /* \"#utility.yul\":3928:3940   */\n          revert\n            /* \"#utility.yul\":3952:4069   */\n        tag_48:\n            /* \"#utility.yul\":4061:4062   */\n          0x00\n            /* \"#utility.yul\":4058:4059   */\n          dup1\n            /* \"#utility.yul\":4051:4063   */\n          revert\n            /* \"#utility.yul\":4075:4192   */\n        tag_45:\n            /* \"#utility.yul\":4184:4185   */\n          0x00\n            /* \"#utility.yul\":4181:4182   */\n          dup1\n            /* \"#utility.yul\":4174:4186   */\n          revert\n            /* \"#utility.yul\":4198:4300   */\n        tag_62:\n            /* \"#utility.yul\":4239:4245   */\n          0x00\n            /* \"#utility.yul\":4290:4292   */\n          0x1f\n            /* \"#utility.yul\":4286:4293   */\n          not\n            /* \"#utility.yul\":4281:4283   */\n          0x1f\n            /* \"#utility.yul\":4274:4279   */\n          dup4\n            /* \"#utility.yul\":4270:4284   */\n          add\n            /* \"#utility.yul\":4266:4294   */\n          and\n            /* \"#utility.yul\":4256:4294   */\n          swap1\n          pop\n            /* \"#utility.yul\":4246:4300   */\n          swap2\n          swap1\n          pop\n          jump\t// out\n            /* \"#utility.yul\":4306:4428   */\n        tag_35:\n            /* \"#utility.yul\":4379:4403   */\n          tag_90\n            /* \"#utility.yul\":4397:4402   */\n          dup2\n            /* \"#utility.yul\":4379:4403   */\n          tag_63\n          jump\t// in\n        tag_90:\n            /* \"#utility.yul\":4372:4377   */\n          dup2\n            /* \"#utility.yul\":4369:4404   */\n          eq\n            /* \"#utility.yul\":4359:4361   */\n          tag_91\n          jumpi\n            /* \"#utility.yul\":4418:4419   */\n          0x00\n            /* \"#utility.yul\":4415:4416   */\n          dup1\n            /* \"#utility.yul\":4408:4420   */\n          revert\n            /* \"#utility.yul\":4359:4361   */\n        tag_91:\n            /* \"#utility.yul\":4349:4428   */\n          pop\n          jump\t// out\n            /* \"Thread.sol\":605:1982  contract Thread{\r... */\n        tag_8:\n          dataSize(sub_0)\n          dup1\n          dataOffset(sub_0)\n          0x00\n          codecopy\n          0x00\n          return\n        stop\n\n        sub_0: assembly {\n                /* \"Thread.sol\":605:1982  contract Thread{\r... */\n              mstore(0x40, 0x80)\n              callvalue\n              dup1\n              iszero\n              tag_1\n              jumpi\n              0x00\n              dup1\n              revert\n            tag_1:\n              pop\n              jumpi(tag_2, lt(calldatasize, 0x04))\n              shr(0xe0, calldataload(0x00))\n              dup1\n              0x481c6a75\n              gt\n              tag_12\n              jumpi\n              dup1\n              0x481c6a75\n              eq\n              tag_7\n              jumpi\n              dup1\n              0x4a79d50c\n              eq\n              tag_8\n              jumpi\n              dup1\n              0x5527b0dd\n              eq\n              tag_9\n              jumpi\n              dup1\n              0x8e53fb41\n              eq\n              tag_10\n              jumpi\n              dup1\n              0xa6322819\n              eq\n              tag_11\n              jumpi\n              jump(tag_2)\n            tag_12:\n              dup1\n              0x02fb0c5e\n              eq\n              tag_3\n              jumpi\n              dup1\n              0x0b1e7f83\n              eq\n              tag_4\n              jumpi\n              dup1\n              0x2f2770db\n              eq\n              tag_5\n              jumpi\n              dup1\n              0x4051ddac\n              eq\n              tag_6\n              jumpi\n            tag_2:\n              0x00\n              dup1\n              revert\n                /* \"Thread.sol\":800:818  bool public active */\n            tag_3:\n              tag_13\n              tag_14\n              jump\t// in\n            tag_13:\n              mload(0x40)\n              tag_15\n              swap2\n              swap1\n              tag_16\n              jump\t// in\n            tag_15:\n              mload(0x40)\n              dup1\n              swap2\n              sub\n              swap1\n              return\n                /* \"Thread.sol\":1011:1030  Post[] public posts */\n            tag_4:\n              tag_17\n              0x04\n              dup1\n              calldatasize\n              sub\n              dup2\n              add\n              swap1\n              tag_18\n              swap2\n              swap1\n              tag_19\n              jump\t// in\n            tag_18:\n              tag_20\n              jump\t// in\n            tag_17:\n              mload(0x40)\n              tag_21\n              swap4\n              swap3\n              swap2\n              swap1\n              tag_22\n              jump\t// in\n            tag_21:\n              mload(0x40)\n              dup1\n              swap2\n              sub\n              swap1\n              return\n                /* \"Thread.sol\":1371:1446  function disable() restricted public\r... */\n            tag_5:\n              tag_23\n              tag_24\n              jump\t// in\n            tag_23:\n              stop\n                /* \"Thread.sol\":1812:1973  function getSummary() public view returns(address,string memory ,uint,uint,bool)\r... */\n            tag_6:\n              tag_25\n              tag_26\n              jump\t// in\n            tag_25:\n              mload(0x40)\n              tag_27\n              swap6\n              swap5\n              swap4\n              swap3\n              swap2\n              swap1\n              tag_28\n              jump\t// in\n            tag_27:\n              mload(0x40)\n              dup1\n              swap2\n              sub\n              swap1\n              return\n                /* \"Thread.sol\":633:655  address public manager */\n            tag_7:\n              tag_29\n              tag_30\n              jump\t// in\n            tag_29:\n              mload(0x40)\n              tag_31\n              swap2\n              swap1\n              tag_32\n              jump\t// in\n            tag_31:\n              mload(0x40)\n              dup1\n              swap2\n              sub\n              swap1\n              return\n                /* \"Thread.sol\":710:729  string public title */\n            tag_8:\n              tag_33\n              tag_34\n              jump\t// in\n            tag_33:\n              mload(0x40)\n              tag_35\n              swap2\n              swap1\n              tag_36\n              jump\t// in\n            tag_35:\n              mload(0x40)\n              dup1\n              swap2\n              sub\n              swap1\n              return\n                /* \"Thread.sol\":736:764  uint public creationDateTime */\n            tag_9:\n              tag_37\n              tag_38\n              jump\t// in\n            tag_37:\n              mload(0x40)\n              tag_39\n              swap2\n              swap1\n              tag_40\n              jump\t// in\n            tag_39:\n              mload(0x40)\n              dup1\n              swap2\n              sub\n              swap1\n              return\n                /* \"Thread.sol\":771:793  uint public totalPosts */\n            tag_10:\n              tag_41\n              tag_42\n              jump\t// in\n            tag_41:\n              mload(0x40)\n              tag_43\n              swap2\n              swap1\n              tag_40\n              jump\t// in\n            tag_43:\n              mload(0x40)\n              dup1\n              swap2\n              sub\n              swap1\n              return\n                /* \"Thread.sol\":1460:1800  function addPost (string memory message) public\r... */\n            tag_11:\n              tag_44\n              0x04\n              dup1\n              calldatasize\n              sub\n              dup2\n              add\n              swap1\n              tag_45\n              swap2\n              swap1\n              tag_46\n              jump\t// in\n            tag_45:\n              tag_47\n              jump\t// in\n            tag_44:\n              stop\n                /* \"Thread.sol\":800:818  bool public active */\n            tag_14:\n              0x04\n              0x00\n              swap1\n              sload\n              swap1\n              0x0100\n              exp\n              swap1\n              div\n              0xff\n              and\n              dup2\n              jump\t// out\n                /* \"Thread.sol\":1011:1030  Post[] public posts */\n            tag_20:\n              0x05\n              dup2\n              dup2\n              sload\n              dup2\n              lt\n              tag_48\n              jumpi\n              0x00\n              dup1\n              revert\n            tag_48:\n              swap1\n              0x00\n              mstore\n              keccak256(0x00, 0x20)\n              swap1\n              0x03\n              mul\n              add\n              0x00\n              swap2\n              pop\n              swap1\n              pop\n              dup1\n              0x00\n              add\n              dup1\n              sload\n              tag_50\n              swap1\n              tag_51\n              jump\t// in\n            tag_50:\n              dup1\n              0x1f\n              add\n              0x20\n              dup1\n              swap2\n              div\n              mul\n              0x20\n              add\n              mload(0x40)\n              swap1\n              dup2\n              add\n              0x40\n              mstore\n              dup1\n              swap3\n              swap2\n              swap1\n              dup2\n              dup2\n              mstore\n              0x20\n              add\n              dup3\n              dup1\n              sload\n              tag_52\n              swap1\n              tag_51\n              jump\t// in\n            tag_52:\n              dup1\n              iszero\n              tag_53\n              jumpi\n              dup1\n              0x1f\n              lt\n              tag_54\n              jumpi\n              0x0100\n              dup1\n              dup4\n              sload\n              div\n              mul\n              dup4\n              mstore\n              swap2\n              0x20\n              add\n              swap2\n              jump(tag_53)\n            tag_54:\n              dup3\n              add\n              swap2\n              swap1\n              0x00\n              mstore\n              keccak256(0x00, 0x20)\n              swap1\n            tag_55:\n              dup2\n              sload\n              dup2\n              mstore\n              swap1\n              0x01\n              add\n              swap1\n              0x20\n              add\n              dup1\n              dup4\n              gt\n              tag_55\n              jumpi\n              dup3\n              swap1\n              sub\n              0x1f\n              and\n              dup3\n              add\n              swap2\n            tag_53:\n              pop\n              pop\n              pop\n              pop\n              pop\n              swap1\n              dup1\n              0x01\n              add\n              sload\n              swap1\n              dup1\n              0x02\n              add\n              0x00\n              swap1\n              sload\n              swap1\n              0x0100\n              exp\n              swap1\n              div\n              0xffffffffffffffffffffffffffffffffffffffff\n              and\n              swap1\n              pop\n              dup4\n              jump\t// out\n                /* \"Thread.sol\":1371:1446  function disable() restricted public\r... */\n            tag_24:\n                /* \"Thread.sol\":1331:1338  manager */\n              0x00\n              dup1\n              sload\n              swap1\n              0x0100\n              exp\n              swap1\n              div\n              0xffffffffffffffffffffffffffffffffffffffff\n              and\n                /* \"Thread.sol\":1317:1338  msg.sender == manager */\n              0xffffffffffffffffffffffffffffffffffffffff\n              and\n                /* \"Thread.sol\":1317:1327  msg.sender */\n              caller\n                /* \"Thread.sol\":1317:1338  msg.sender == manager */\n              0xffffffffffffffffffffffffffffffffffffffff\n              and\n              eq\n                /* \"Thread.sol\":1309:1339  require(msg.sender == manager) */\n              tag_57\n              jumpi\n              0x00\n              dup1\n              revert\n            tag_57:\n                /* \"Thread.sol\":1433:1438  false */\n              0x00\n                /* \"Thread.sol\":1424:1430  active */\n              0x04\n              0x00\n                /* \"Thread.sol\":1424:1438  active = false */\n              0x0100\n              exp\n              dup2\n              sload\n              dup2\n              0xff\n              mul\n              not\n              and\n              swap1\n              dup4\n              iszero\n              iszero\n              mul\n              or\n              swap1\n              sstore\n              pop\n                /* \"Thread.sol\":1371:1446  function disable() restricted public\r... */\n              jump\t// out\n                /* \"Thread.sol\":1812:1973  function getSummary() public view returns(address,string memory ,uint,uint,bool)\r... */\n            tag_26:\n                /* \"Thread.sol\":1854:1861  address */\n              0x00\n                /* \"Thread.sol\":1862:1875  string memory */\n              0x60\n                /* \"Thread.sol\":1877:1881  uint */\n              0x00\n                /* \"Thread.sol\":1882:1886  uint */\n              dup1\n                /* \"Thread.sol\":1887:1891  bool */\n              0x00\n                /* \"Thread.sol\":1916:1923  manager */\n              dup1\n              0x00\n              swap1\n              sload\n              swap1\n              0x0100\n              exp\n              swap1\n              div\n              0xffffffffffffffffffffffffffffffffffffffff\n              and\n                /* \"Thread.sol\":1924:1929  title */\n              0x01\n                /* \"Thread.sol\":1930:1946  creationDateTime */\n              sload(0x02)\n                /* \"Thread.sol\":1947:1957  totalPosts */\n              sload(0x03)\n                /* \"Thread.sol\":1958:1964  active */\n              0x04\n              0x00\n              swap1\n              sload\n              swap1\n              0x0100\n              exp\n              swap1\n              div\n              0xff\n              and\n                /* \"Thread.sol\":1909:1965  return(manager,title,creationDateTime,totalPosts,active) */\n              dup4\n              dup1\n              sload\n              tag_60\n              swap1\n              tag_51\n              jump\t// in\n            tag_60:\n              dup1\n              0x1f\n              add\n              0x20\n              dup1\n              swap2\n              div\n              mul\n              0x20\n              add\n              mload(0x40)\n              swap1\n              dup2\n              add\n              0x40\n              mstore\n              dup1\n              swap3\n              swap2\n              swap1\n              dup2\n              dup2\n              mstore\n              0x20\n              add\n              dup3\n              dup1\n              sload\n              tag_61\n              swap1\n              tag_51\n              jump\t// in\n            tag_61:\n              dup1\n              iszero\n              tag_62\n              jumpi\n              dup1\n              0x1f\n              lt\n              tag_63\n              jumpi\n              0x0100\n              dup1\n              dup4\n              sload\n              div\n              mul\n              dup4\n              mstore\n              swap2\n              0x20\n              add\n              swap2\n              jump(tag_62)\n            tag_63:\n              dup3\n              add\n              swap2\n              swap1\n              0x00\n              mstore\n              keccak256(0x00, 0x20)\n              swap1\n            tag_64:\n              dup2\n              sload\n              dup2\n              mstore\n              swap1\n              0x01\n              add\n              swap1\n              0x20\n              add\n              dup1\n              dup4\n              gt\n              tag_64\n              jumpi\n              dup3\n              swap1\n              sub\n              0x1f\n              and\n              dup3\n              add\n              swap2\n            tag_62:\n              pop\n              pop\n              pop\n              pop\n              pop\n              swap4\n              pop\n              swap5\n              pop\n              swap5\n              pop\n              swap5\n              pop\n              swap5\n              pop\n              swap5\n              pop\n                /* \"Thread.sol\":1812:1973  function getSummary() public view returns(address,string memory ,uint,uint,bool)\r... */\n              swap1\n              swap2\n              swap3\n              swap4\n              swap5\n              jump\t// out\n                /* \"Thread.sol\":633:655  address public manager */\n            tag_30:\n              0x00\n              dup1\n              sload\n              swap1\n              0x0100\n              exp\n              swap1\n              div\n              0xffffffffffffffffffffffffffffffffffffffff\n              and\n              dup2\n              jump\t// out\n                /* \"Thread.sol\":710:729  string public title */\n            tag_34:\n              0x01\n              dup1\n              sload\n              tag_65\n              swap1\n              tag_51\n              jump\t// in\n            tag_65:\n              dup1\n              0x1f\n              add\n              0x20\n              dup1\n              swap2\n              div\n              mul\n              0x20\n              add\n              mload(0x40)\n              swap1\n              dup2\n              add\n              0x40\n              mstore\n              dup1\n              swap3\n              swap2\n              swap1\n              dup2\n              dup2\n              mstore\n              0x20\n              add\n              dup3\n              dup1\n              sload\n              tag_66\n              swap1\n              tag_51\n              jump\t// in\n            tag_66:\n              dup1\n              iszero\n              tag_67\n              jumpi\n              dup1\n              0x1f\n              lt\n              tag_68\n              jumpi\n              0x0100\n              dup1\n              dup4\n              sload\n              div\n              mul\n              dup4\n              mstore\n              swap2\n              0x20\n              add\n              swap2\n              jump(tag_67)\n            tag_68:\n              dup3\n              add\n              swap2\n              swap1\n              0x00\n              mstore\n              keccak256(0x00, 0x20)\n              swap1\n            tag_69:\n              dup2\n              sload\n              dup2\n              mstore\n              swap1\n              0x01\n              add\n              swap1\n              0x20\n              add\n              dup1\n              dup4\n              gt\n              tag_69\n              jumpi\n              dup3\n              swap1\n              sub\n              0x1f\n              and\n              dup3\n              add\n              swap2\n            tag_67:\n              pop\n              pop\n              pop\n              pop\n              pop\n              dup2\n              jump\t// out\n                /* \"Thread.sol\":736:764  uint public creationDateTime */\n            tag_38:\n              sload(0x02)\n              dup2\n              jump\t// out\n                /* \"Thread.sol\":771:793  uint public totalPosts */\n            tag_42:\n              sload(0x03)\n              dup2\n              jump\t// out\n                /* \"Thread.sol\":1460:1800  function addPost (string memory message) public\r... */\n            tag_47:\n                /* \"Thread.sol\":1532:1538  active */\n              0x04\n              0x00\n              swap1\n              sload\n              swap1\n              0x0100\n              exp\n              swap1\n              div\n              0xff\n              and\n                /* \"Thread.sol\":1524:1539  require(active) */\n              tag_71\n              jumpi\n              0x00\n              dup1\n              revert\n            tag_71:\n                /* \"Thread.sol\":1560:1579  Post memory newPost */\n              0x00\n                /* \"Thread.sol\":1583:1709  Post({\r... */\n              mload(0x40)\n              dup1\n              0x60\n              add\n              0x40\n              mstore\n              dup1\n                /* \"Thread.sol\":1613:1620  message */\n              dup4\n                /* \"Thread.sol\":1583:1709  Post({\r... */\n              dup2\n              mstore\n              0x20\n              add\n                /* \"Thread.sol\":1647:1662  block.timestamp */\n              timestamp\n                /* \"Thread.sol\":1583:1709  Post({\r... */\n              dup2\n              mstore\n              0x20\n              add\n                /* \"Thread.sol\":1686:1696  msg.sender */\n              caller\n                /* \"Thread.sol\":1583:1709  Post({\r... */\n              0xffffffffffffffffffffffffffffffffffffffff\n              and\n              dup2\n              mstore\n              pop\n                /* \"Thread.sol\":1560:1709  Post memory newPost =  Post({\r... */\n              swap1\n              pop\n                /* \"Thread.sol\":1730:1735  posts */\n              0x05\n                /* \"Thread.sol\":1741:1748  newPost */\n              dup2\n                /* \"Thread.sol\":1730:1749  posts.push(newPost) */\n              swap1\n              dup1\n              0x01\n              dup2\n              sload\n              add\n              dup1\n              dup3\n              sstore\n              dup1\n              swap2\n              pop\n              pop\n              0x01\n              swap1\n              sub\n              swap1\n              0x00\n              mstore\n              keccak256(0x00, 0x20)\n              swap1\n              0x03\n              mul\n              add\n              0x00\n              swap1\n              swap2\n              swap1\n              swap2\n              swap1\n              swap2\n              pop\n              0x00\n              dup3\n              add\n              mload\n              dup2\n              0x00\n              add\n              swap1\n              dup1\n              mload\n              swap1\n              0x20\n              add\n              swap1\n              tag_73\n              swap3\n              swap2\n              swap1\n              tag_74\n              jump\t// in\n            tag_73:\n              pop\n              0x20\n              dup3\n              add\n              mload\n              dup2\n              0x01\n              add\n              sstore\n              0x40\n              dup3\n              add\n              mload\n              dup2\n              0x02\n              add\n              exp(0x0100, 0x00)\n              dup2\n              sload\n              dup2\n              0xffffffffffffffffffffffffffffffffffffffff\n              mul\n              not\n              and\n              swap1\n              dup4\n              0xffffffffffffffffffffffffffffffffffffffff\n              and\n              mul\n              or\n              swap1\n              sstore\n              pop\n              pop\n              pop\n                /* \"Thread.sol\":1770:1780  totalPosts */\n              0x03\n              0x00\n                /* \"Thread.sol\":1770:1782  totalPosts++ */\n              dup2\n              sload\n              dup1\n              swap3\n              swap2\n              swap1\n              tag_75\n              swap1\n              tag_76\n              jump\t// in\n            tag_75:\n              swap2\n              swap1\n              pop\n              sstore\n              pop\n                /* \"Thread.sol\":1513:1800  {\r... */\n              pop\n                /* \"Thread.sol\":1460:1800  function addPost (string memory message) public\r... */\n              pop\n              jump\t// out\n            tag_74:\n              dup3\n              dup1\n              sload\n              tag_77\n              swap1\n              tag_51\n              jump\t// in\n            tag_77:\n              swap1\n              0x00\n              mstore\n              keccak256(0x00, 0x20)\n              swap1\n              0x1f\n              add\n              0x20\n              swap1\n              div\n              dup2\n              add\n              swap3\n              dup3\n              tag_79\n              jumpi\n              0x00\n              dup6\n              sstore\n              jump(tag_78)\n            tag_79:\n              dup3\n              0x1f\n              lt\n              tag_80\n              jumpi\n              dup1\n              mload\n              not(0xff)\n              and\n              dup4\n              dup1\n              add\n              or\n              dup6\n              sstore\n              jump(tag_78)\n            tag_80:\n              dup3\n              dup1\n              add\n              0x01\n              add\n              dup6\n              sstore\n              dup3\n              iszero\n              tag_78\n              jumpi\n              swap2\n              dup3\n              add\n            tag_81:\n              dup3\n              dup2\n              gt\n              iszero\n              tag_82\n              jumpi\n              dup3\n              mload\n              dup3\n              sstore\n              swap2\n              0x20\n              add\n              swap2\n              swap1\n              0x01\n              add\n              swap1\n              jump(tag_81)\n            tag_82:\n            tag_78:\n              pop\n              swap1\n              pop\n              tag_83\n              swap2\n              swap1\n              tag_84\n              jump\t// in\n            tag_83:\n              pop\n              swap1\n              jump\t// out\n            tag_84:\n            tag_85:\n              dup1\n              dup3\n              gt\n              iszero\n              tag_86\n              jumpi\n              0x00\n              dup2\n              0x00\n              swap1\n              sstore\n              pop\n              0x01\n              add\n              jump(tag_85)\n            tag_86:\n              pop\n              swap1\n              jump\t// out\n                /* \"#utility.yul\":7:419   */\n            tag_88:\n                /* \"#utility.yul\":85:90   */\n              0x00\n                /* \"#utility.yul\":110:176   */\n              tag_90\n                /* \"#utility.yul\":126:175   */\n              tag_91\n                /* \"#utility.yul\":168:174   */\n              dup5\n                /* \"#utility.yul\":126:175   */\n              tag_92\n              jump\t// in\n            tag_91:\n                /* \"#utility.yul\":110:176   */\n              tag_93\n              jump\t// in\n            tag_90:\n                /* \"#utility.yul\":101:176   */\n              swap1\n              pop\n                /* \"#utility.yul\":199:205   */\n              dup3\n                /* \"#utility.yul\":192:197   */\n              dup2\n                /* \"#utility.yul\":185:206   */\n              mstore\n                /* \"#utility.yul\":237:241   */\n              0x20\n                /* \"#utility.yul\":230:235   */\n              dup2\n                /* \"#utility.yul\":226:242   */\n              add\n                /* \"#utility.yul\":275:278   */\n              dup5\n                /* \"#utility.yul\":266:272   */\n              dup5\n                /* \"#utility.yul\":261:264   */\n              dup5\n                /* \"#utility.yul\":257:273   */\n              add\n                /* \"#utility.yul\":254:279   */\n              gt\n                /* \"#utility.yul\":251:253   */\n              iszero\n              tag_94\n              jumpi\n                /* \"#utility.yul\":282:361   */\n              tag_95\n              tag_96\n              jump\t// in\n            tag_95:\n                /* \"#utility.yul\":251:253   */\n            tag_94:\n                /* \"#utility.yul\":372:413   */\n              tag_97\n                /* \"#utility.yul\":406:412   */\n              dup5\n                /* \"#utility.yul\":401:404   */\n              dup3\n                /* \"#utility.yul\":396:399   */\n              dup6\n                /* \"#utility.yul\":372:413   */\n              tag_98\n              jump\t// in\n            tag_97:\n                /* \"#utility.yul\":91:419   */\n              pop\n              swap4\n              swap3\n              pop\n              pop\n              pop\n              jump\t// out\n                /* \"#utility.yul\":439:779   */\n            tag_99:\n                /* \"#utility.yul\":495:500   */\n              0x00\n                /* \"#utility.yul\":544:547   */\n              dup3\n                /* \"#utility.yul\":537:541   */\n              0x1f\n                /* \"#utility.yul\":529:535   */\n              dup4\n                /* \"#utility.yul\":525:542   */\n              add\n                /* \"#utility.yul\":521:548   */\n              slt\n                /* \"#utility.yul\":511:513   */\n              tag_101\n              jumpi\n                /* \"#utility.yul\":552:631   */\n              tag_102\n              tag_103\n              jump\t// in\n            tag_102:\n                /* \"#utility.yul\":511:513   */\n            tag_101:\n                /* \"#utility.yul\":669:675   */\n              dup2\n                /* \"#utility.yul\":656:676   */\n              calldataload\n                /* \"#utility.yul\":694:773   */\n              tag_104\n                /* \"#utility.yul\":769:772   */\n              dup5\n                /* \"#utility.yul\":761:767   */\n              dup3\n                /* \"#utility.yul\":754:758   */\n              0x20\n                /* \"#utility.yul\":746:752   */\n              dup7\n                /* \"#utility.yul\":742:759   */\n              add\n                /* \"#utility.yul\":694:773   */\n              tag_88\n              jump\t// in\n            tag_104:\n                /* \"#utility.yul\":685:773   */\n              swap2\n              pop\n                /* \"#utility.yul\":501:779   */\n              pop\n              swap3\n              swap2\n              pop\n              pop\n              jump\t// out\n                /* \"#utility.yul\":785:924   */\n            tag_105:\n                /* \"#utility.yul\":831:836   */\n              0x00\n                /* \"#utility.yul\":869:875   */\n              dup2\n                /* \"#utility.yul\":856:876   */\n              calldataload\n                /* \"#utility.yul\":847:876   */\n              swap1\n              pop\n                /* \"#utility.yul\":885:918   */\n              tag_107\n                /* \"#utility.yul\":912:917   */\n              dup2\n                /* \"#utility.yul\":885:918   */\n              tag_108\n              jump\t// in\n            tag_107:\n                /* \"#utility.yul\":837:924   */\n              swap3\n              swap2\n              pop\n              pop\n              jump\t// out\n                /* \"#utility.yul\":930:1439   */\n            tag_46:\n                /* \"#utility.yul\":999:1005   */\n              0x00\n                /* \"#utility.yul\":1048:1050   */\n              0x20\n                /* \"#utility.yul\":1036:1045   */\n              dup3\n                /* \"#utility.yul\":1027:1034   */\n              dup5\n                /* \"#utility.yul\":1023:1046   */\n              sub\n                /* \"#utility.yul\":1019:1051   */\n              slt\n                /* \"#utility.yul\":1016:1018   */\n              iszero\n              tag_110\n              jumpi\n                /* \"#utility.yul\":1054:1133   */\n              tag_111\n              tag_112\n              jump\t// in\n            tag_111:\n                /* \"#utility.yul\":1016:1018   */\n            tag_110:\n                /* \"#utility.yul\":1202:1203   */\n              0x00\n                /* \"#utility.yul\":1191:1200   */\n              dup3\n                /* \"#utility.yul\":1187:1204   */\n              add\n                /* \"#utility.yul\":1174:1205   */\n              calldataload\n                /* \"#utility.yul\":1232:1250   */\n              0xffffffffffffffff\n                /* \"#utility.yul\":1224:1230   */\n              dup2\n                /* \"#utility.yul\":1221:1251   */\n              gt\n                /* \"#utility.yul\":1218:1220   */\n              iszero\n              tag_113\n              jumpi\n                /* \"#utility.yul\":1254:1333   */\n              tag_114\n              tag_115\n              jump\t// in\n            tag_114:\n                /* \"#utility.yul\":1218:1220   */\n            tag_113:\n                /* \"#utility.yul\":1359:1422   */\n              tag_116\n                /* \"#utility.yul\":1414:1421   */\n              dup5\n                /* \"#utility.yul\":1405:1411   */\n              dup3\n                /* \"#utility.yul\":1394:1403   */\n              dup6\n                /* \"#utility.yul\":1390:1412   */\n              add\n                /* \"#utility.yul\":1359:1422   */\n              tag_99\n              jump\t// in\n            tag_116:\n                /* \"#utility.yul\":1349:1422   */\n              swap2\n              pop\n                /* \"#utility.yul\":1145:1432   */\n              pop\n                /* \"#utility.yul\":1006:1439   */\n              swap3\n              swap2\n              pop\n              pop\n              jump\t// out\n                /* \"#utility.yul\":1445:1774   */\n            tag_19:\n                /* \"#utility.yul\":1504:1510   */\n              0x00\n                /* \"#utility.yul\":1553:1555   */\n              0x20\n                /* \"#utility.yul\":1541:1550   */\n              dup3\n                /* \"#utility.yul\":1532:1539   */\n              dup5\n                /* \"#utility.yul\":1528:1551   */\n              sub\n                /* \"#utility.yul\":1524:1556   */\n              slt\n                /* \"#utility.yul\":1521:1523   */\n              iszero\n              tag_118\n              jumpi\n                /* \"#utility.yul\":1559:1638   */\n              tag_119\n              tag_112\n              jump\t// in\n            tag_119:\n                /* \"#utility.yul\":1521:1523   */\n            tag_118:\n                /* \"#utility.yul\":1679:1680   */\n              0x00\n                /* \"#utility.yul\":1704:1757   */\n              tag_120\n                /* \"#utility.yul\":1749:1756   */\n              dup5\n                /* \"#utility.yul\":1740:1746   */\n              dup3\n                /* \"#utility.yul\":1729:1738   */\n              dup6\n                /* \"#utility.yul\":1725:1747   */\n              add\n                /* \"#utility.yul\":1704:1757   */\n              tag_105\n              jump\t// in\n            tag_120:\n                /* \"#utility.yul\":1694:1757   */\n              swap2\n              pop\n                /* \"#utility.yul\":1650:1767   */\n              pop\n                /* \"#utility.yul\":1511:1774   */\n              swap3\n              swap2\n              pop\n              pop\n              jump\t// out\n                /* \"#utility.yul\":1780:1898   */\n            tag_121:\n                /* \"#utility.yul\":1867:1891   */\n              tag_123\n                /* \"#utility.yul\":1885:1890   */\n              dup2\n                /* \"#utility.yul\":1867:1891   */\n              tag_124\n              jump\t// in\n            tag_123:\n                /* \"#utility.yul\":1862:1865   */\n              dup3\n                /* \"#utility.yul\":1855:1892   */\n              mstore\n                /* \"#utility.yul\":1845:1898   */\n              pop\n              pop\n              jump\t// out\n                /* \"#utility.yul\":1904:2013   */\n            tag_125:\n                /* \"#utility.yul\":1985:2006   */\n              tag_127\n                /* \"#utility.yul\":2000:2005   */\n              dup2\n                /* \"#utility.yul\":1985:2006   */\n              tag_128\n              jump\t// in\n            tag_127:\n                /* \"#utility.yul\":1980:1983   */\n              dup3\n                /* \"#utility.yul\":1973:2007   */\n              mstore\n                /* \"#utility.yul\":1963:2013   */\n              pop\n              pop\n              jump\t// out\n                /* \"#utility.yul\":2019:2383   */\n            tag_129:\n                /* \"#utility.yul\":2107:2110   */\n              0x00\n                /* \"#utility.yul\":2135:2174   */\n              tag_131\n                /* \"#utility.yul\":2168:2173   */\n              dup3\n                /* \"#utility.yul\":2135:2174   */\n              tag_132\n              jump\t// in\n            tag_131:\n                /* \"#utility.yul\":2190:2261   */\n              tag_133\n                /* \"#utility.yul\":2254:2260   */\n              dup2\n                /* \"#utility.yul\":2249:2252   */\n              dup6\n                /* \"#utility.yul\":2190:2261   */\n              tag_134\n              jump\t// in\n            tag_133:\n                /* \"#utility.yul\":2183:2261   */\n              swap4\n              pop\n                /* \"#utility.yul\":2270:2322   */\n              tag_135\n                /* \"#utility.yul\":2315:2321   */\n              dup2\n                /* \"#utility.yul\":2310:2313   */\n              dup6\n                /* \"#utility.yul\":2303:2307   */\n              0x20\n                /* \"#utility.yul\":2296:2301   */\n              dup7\n                /* \"#utility.yul\":2292:2308   */\n              add\n                /* \"#utility.yul\":2270:2322   */\n              tag_136\n              jump\t// in\n            tag_135:\n                /* \"#utility.yul\":2347:2376   */\n              tag_137\n                /* \"#utility.yul\":2369:2375   */\n              dup2\n                /* \"#utility.yul\":2347:2376   */\n              tag_138\n              jump\t// in\n            tag_137:\n                /* \"#utility.yul\":2342:2345   */\n              dup5\n                /* \"#utility.yul\":2338:2377   */\n              add\n                /* \"#utility.yul\":2331:2377   */\n              swap2\n              pop\n                /* \"#utility.yul\":2111:2383   */\n              pop\n              swap3\n              swap2\n              pop\n              pop\n              jump\t// out\n                /* \"#utility.yul\":2389:2507   */\n            tag_139:\n                /* \"#utility.yul\":2476:2500   */\n              tag_141\n                /* \"#utility.yul\":2494:2499   */\n              dup2\n                /* \"#utility.yul\":2476:2500   */\n              tag_142\n              jump\t// in\n            tag_141:\n                /* \"#utility.yul\":2471:2474   */\n              dup3\n                /* \"#utility.yul\":2464:2501   */\n              mstore\n                /* \"#utility.yul\":2454:2507   */\n              pop\n              pop\n              jump\t// out\n                /* \"#utility.yul\":2513:2735   */\n            tag_32:\n                /* \"#utility.yul\":2606:2610   */\n              0x00\n                /* \"#utility.yul\":2644:2646   */\n              0x20\n                /* \"#utility.yul\":2633:2642   */\n              dup3\n                /* \"#utility.yul\":2629:2647   */\n              add\n                /* \"#utility.yul\":2621:2647   */\n              swap1\n              pop\n                /* \"#utility.yul\":2657:2728   */\n              tag_144\n                /* \"#utility.yul\":2725:2726   */\n              0x00\n                /* \"#utility.yul\":2714:2723   */\n              dup4\n                /* \"#utility.yul\":2710:2727   */\n              add\n                /* \"#utility.yul\":2701:2707   */\n              dup5\n                /* \"#utility.yul\":2657:2728   */\n              tag_121\n              jump\t// in\n            tag_144:\n                /* \"#utility.yul\":2611:2735   */\n              swap3\n              swap2\n              pop\n              pop\n              jump\t// out\n                /* \"#utility.yul\":2741:3484   */\n            tag_28:\n                /* \"#utility.yul\":2960:2964   */\n              0x00\n                /* \"#utility.yul\":2998:3001   */\n              0xa0\n                /* \"#utility.yul\":2987:2996   */\n              dup3\n                /* \"#utility.yul\":2983:3002   */\n              add\n                /* \"#utility.yul\":2975:3002   */\n              swap1\n              pop\n                /* \"#utility.yul\":3012:3083   */\n              tag_146\n                /* \"#utility.yul\":3080:3081   */\n              0x00\n                /* \"#utility.yul\":3069:3078   */\n              dup4\n                /* \"#utility.yul\":3065:3082   */\n              add\n                /* \"#utility.yul\":3056:3062   */\n              dup9\n                /* \"#utility.yul\":3012:3083   */\n              tag_121\n              jump\t// in\n            tag_146:\n                /* \"#utility.yul\":3130:3139   */\n              dup2\n                /* \"#utility.yul\":3124:3128   */\n              dup2\n                /* \"#utility.yul\":3120:3140   */\n              sub\n                /* \"#utility.yul\":3115:3117   */\n              0x20\n                /* \"#utility.yul\":3104:3113   */\n              dup4\n                /* \"#utility.yul\":3100:3118   */\n              add\n                /* \"#utility.yul\":3093:3141   */\n              mstore\n                /* \"#utility.yul\":3158:3236   */\n              tag_147\n                /* \"#utility.yul\":3231:3235   */\n              dup2\n                /* \"#utility.yul\":3222:3228   */\n              dup8\n                /* \"#utility.yul\":3158:3236   */\n              tag_129\n              jump\t// in\n            tag_147:\n                /* \"#utility.yul\":3150:3236   */\n              swap1\n              pop\n                /* \"#utility.yul\":3246:3318   */\n              tag_148\n                /* \"#utility.yul\":3314:3316   */\n              0x40\n                /* \"#utility.yul\":3303:3312   */\n              dup4\n                /* \"#utility.yul\":3299:3317   */\n              add\n                /* \"#utility.yul\":3290:3296   */\n              dup7\n                /* \"#utility.yul\":3246:3318   */\n              tag_139\n              jump\t// in\n            tag_148:\n                /* \"#utility.yul\":3328:3400   */\n              tag_149\n                /* \"#utility.yul\":3396:3398   */\n              0x60\n                /* \"#utility.yul\":3385:3394   */\n              dup4\n                /* \"#utility.yul\":3381:3399   */\n              add\n                /* \"#utility.yul\":3372:3378   */\n              dup6\n                /* \"#utility.yul\":3328:3400   */\n              tag_139\n              jump\t// in\n            tag_149:\n                /* \"#utility.yul\":3410:3477   */\n              tag_150\n                /* \"#utility.yul\":3472:3475   */\n              0x80\n                /* \"#utility.yul\":3461:3470   */\n              dup4\n                /* \"#utility.yul\":3457:3476   */\n              add\n                /* \"#utility.yul\":3448:3454   */\n              dup5\n                /* \"#utility.yul\":3410:3477   */\n              tag_125\n              jump\t// in\n            tag_150:\n                /* \"#utility.yul\":2965:3484   */\n              swap7\n              swap6\n              pop\n              pop\n              pop\n              pop\n              pop\n              pop\n              jump\t// out\n                /* \"#utility.yul\":3490:3700   */\n            tag_16:\n                /* \"#utility.yul\":3577:3581   */\n              0x00\n                /* \"#utility.yul\":3615:3617   */\n              0x20\n                /* \"#utility.yul\":3604:3613   */\n              dup3\n                /* \"#utility.yul\":3600:3618   */\n              add\n                /* \"#utility.yul\":3592:3618   */\n              swap1\n              pop\n                /* \"#utility.yul\":3628:3693   */\n              tag_152\n                /* \"#utility.yul\":3690:3691   */\n              0x00\n                /* \"#utility.yul\":3679:3688   */\n              dup4\n                /* \"#utility.yul\":3675:3692   */\n              add\n                /* \"#utility.yul\":3666:3672   */\n              dup5\n                /* \"#utility.yul\":3628:3693   */\n              tag_125\n              jump\t// in\n            tag_152:\n                /* \"#utility.yul\":3582:3700   */\n              swap3\n              swap2\n              pop\n              pop\n              jump\t// out\n                /* \"#utility.yul\":3706:4019   */\n            tag_36:\n                /* \"#utility.yul\":3819:3823   */\n              0x00\n                /* \"#utility.yul\":3857:3859   */\n              0x20\n                /* \"#utility.yul\":3846:3855   */\n              dup3\n                /* \"#utility.yul\":3842:3860   */\n              add\n                /* \"#utility.yul\":3834:3860   */\n              swap1\n              pop\n                /* \"#utility.yul\":3906:3915   */\n              dup2\n                /* \"#utility.yul\":3900:3904   */\n              dup2\n                /* \"#utility.yul\":3896:3916   */\n              sub\n                /* \"#utility.yul\":3892:3893   */\n              0x00\n                /* \"#utility.yul\":3881:3890   */\n              dup4\n                /* \"#utility.yul\":3877:3894   */\n              add\n                /* \"#utility.yul\":3870:3917   */\n              mstore\n                /* \"#utility.yul\":3934:4012   */\n              tag_154\n                /* \"#utility.yul\":4007:4011   */\n              dup2\n                /* \"#utility.yul\":3998:4004   */\n              dup5\n                /* \"#utility.yul\":3934:4012   */\n              tag_129\n              jump\t// in\n            tag_154:\n                /* \"#utility.yul\":3926:4012   */\n              swap1\n              pop\n                /* \"#utility.yul\":3824:4019   */\n              swap3\n              swap2\n              pop\n              pop\n              jump\t// out\n                /* \"#utility.yul\":4025:4558   */\n            tag_22:\n                /* \"#utility.yul\":4194:4198   */\n              0x00\n                /* \"#utility.yul\":4232:4234   */\n              0x60\n                /* \"#utility.yul\":4221:4230   */\n              dup3\n                /* \"#utility.yul\":4217:4235   */\n              add\n                /* \"#utility.yul\":4209:4235   */\n              swap1\n              pop\n                /* \"#utility.yul\":4281:4290   */\n              dup2\n                /* \"#utility.yul\":4275:4279   */\n              dup2\n                /* \"#utility.yul\":4271:4291   */\n              sub\n                /* \"#utility.yul\":4267:4268   */\n              0x00\n                /* \"#utility.yul\":4256:4265   */\n              dup4\n                /* \"#utility.yul\":4252:4269   */\n              add\n                /* \"#utility.yul\":4245:4292   */\n              mstore\n                /* \"#utility.yul\":4309:4387   */\n              tag_156\n                /* \"#utility.yul\":4382:4386   */\n              dup2\n                /* \"#utility.yul\":4373:4379   */\n              dup7\n                /* \"#utility.yul\":4309:4387   */\n              tag_129\n              jump\t// in\n            tag_156:\n                /* \"#utility.yul\":4301:4387   */\n              swap1\n              pop\n                /* \"#utility.yul\":4397:4469   */\n              tag_157\n                /* \"#utility.yul\":4465:4467   */\n              0x20\n                /* \"#utility.yul\":4454:4463   */\n              dup4\n                /* \"#utility.yul\":4450:4468   */\n              add\n                /* \"#utility.yul\":4441:4447   */\n              dup6\n                /* \"#utility.yul\":4397:4469   */\n              tag_139\n              jump\t// in\n            tag_157:\n                /* \"#utility.yul\":4479:4551   */\n              tag_158\n                /* \"#utility.yul\":4547:4549   */\n              0x40\n                /* \"#utility.yul\":4536:4545   */\n              dup4\n                /* \"#utility.yul\":4532:4550   */\n              add\n                /* \"#utility.yul\":4523:4529   */\n              dup5\n                /* \"#utility.yul\":4479:4551   */\n              tag_121\n              jump\t// in\n            tag_158:\n                /* \"#utility.yul\":4199:4558   */\n              swap5\n              swap4\n              pop\n              pop\n              pop\n              pop\n              jump\t// out\n                /* \"#utility.yul\":4564:4786   */\n            tag_40:\n                /* \"#utility.yul\":4657:4661   */\n              0x00\n                /* \"#utility.yul\":4695:4697   */\n              0x20\n                /* \"#utility.yul\":4684:4693   */\n              dup3\n                /* \"#utility.yul\":4680:4698   */\n              add\n                /* \"#utility.yul\":4672:4698   */\n              swap1\n              pop\n                /* \"#utility.yul\":4708:4779   */\n              tag_160\n                /* \"#utility.yul\":4776:4777   */\n              0x00\n                /* \"#utility.yul\":4765:4774   */\n              dup4\n                /* \"#utility.yul\":4761:4778   */\n              add\n                /* \"#utility.yul\":4752:4758   */\n              dup5\n                /* \"#utility.yul\":4708:4779   */\n              tag_139\n              jump\t// in\n            tag_160:\n                /* \"#utility.yul\":4662:4786   */\n              swap3\n              swap2\n              pop\n              pop\n              jump\t// out\n                /* \"#utility.yul\":4792:4921   */\n            tag_93:\n                /* \"#utility.yul\":4826:4832   */\n              0x00\n                /* \"#utility.yul\":4853:4873   */\n              tag_162\n              tag_163\n              jump\t// in\n            tag_162:\n                /* \"#utility.yul\":4843:4873   */\n              swap1\n              pop\n                /* \"#utility.yul\":4882:4915   */\n              tag_164\n                /* \"#utility.yul\":4910:4914   */\n              dup3\n                /* \"#utility.yul\":4902:4908   */\n              dup3\n                /* \"#utility.yul\":4882:4915   */\n              tag_165\n              jump\t// in\n            tag_164:\n                /* \"#utility.yul\":4833:4921   */\n              swap2\n              swap1\n              pop\n              jump\t// out\n                /* \"#utility.yul\":4927:5002   */\n            tag_163:\n                /* \"#utility.yul\":4960:4966   */\n              0x00\n                /* \"#utility.yul\":4993:4995   */\n              0x40\n                /* \"#utility.yul\":4987:4996   */\n              mload\n                /* \"#utility.yul\":4977:4996   */\n              swap1\n              pop\n                /* \"#utility.yul\":4967:5002   */\n              swap1\n              jump\t// out\n                /* \"#utility.yul\":5008:5316   */\n            tag_92:\n                /* \"#utility.yul\":5070:5074   */\n              0x00\n                /* \"#utility.yul\":5160:5178   */\n              0xffffffffffffffff\n                /* \"#utility.yul\":5152:5158   */\n              dup3\n                /* \"#utility.yul\":5149:5179   */\n              gt\n                /* \"#utility.yul\":5146:5148   */\n              iszero\n              tag_168\n              jumpi\n                /* \"#utility.yul\":5182:5200   */\n              tag_169\n              tag_170\n              jump\t// in\n            tag_169:\n                /* \"#utility.yul\":5146:5148   */\n            tag_168:\n                /* \"#utility.yul\":5220:5249   */\n              tag_171\n                /* \"#utility.yul\":5242:5248   */\n              dup3\n                /* \"#utility.yul\":5220:5249   */\n              tag_138\n              jump\t// in\n            tag_171:\n                /* \"#utility.yul\":5212:5249   */\n              swap1\n              pop\n                /* \"#utility.yul\":5304:5308   */\n              0x20\n                /* \"#utility.yul\":5298:5302   */\n              dup2\n                /* \"#utility.yul\":5294:5309   */\n              add\n                /* \"#utility.yul\":5286:5309   */\n              swap1\n              pop\n                /* \"#utility.yul\":5075:5316   */\n              swap2\n              swap1\n              pop\n              jump\t// out\n                /* \"#utility.yul\":5322:5421   */\n            tag_132:\n                /* \"#utility.yul\":5374:5380   */\n              0x00\n                /* \"#utility.yul\":5408:5413   */\n              dup2\n                /* \"#utility.yul\":5402:5414   */\n              mload\n                /* \"#utility.yul\":5392:5414   */\n              swap1\n              pop\n                /* \"#utility.yul\":5381:5421   */\n              swap2\n              swap1\n              pop\n              jump\t// out\n                /* \"#utility.yul\":5427:5596   */\n            tag_134:\n                /* \"#utility.yul\":5511:5522   */\n              0x00\n                /* \"#utility.yul\":5545:5551   */\n              dup3\n                /* \"#utility.yul\":5540:5543   */\n              dup3\n                /* \"#utility.yul\":5533:5552   */\n              mstore\n                /* \"#utility.yul\":5585:5589   */\n              0x20\n                /* \"#utility.yul\":5580:5583   */\n              dup3\n                /* \"#utility.yul\":5576:5590   */\n              add\n                /* \"#utility.yul\":5561:5590   */\n              swap1\n              pop\n                /* \"#utility.yul\":5523:5596   */\n              swap3\n              swap2\n              pop\n              pop\n              jump\t// out\n                /* \"#utility.yul\":5602:5698   */\n            tag_124:\n                /* \"#utility.yul\":5639:5646   */\n              0x00\n                /* \"#utility.yul\":5668:5692   */\n              tag_175\n                /* \"#utility.yul\":5686:5691   */\n              dup3\n                /* \"#utility.yul\":5668:5692   */\n              tag_176\n              jump\t// in\n            tag_175:\n                /* \"#utility.yul\":5657:5692   */\n              swap1\n              pop\n                /* \"#utility.yul\":5647:5698   */\n              swap2\n              swap1\n              pop\n              jump\t// out\n                /* \"#utility.yul\":5704:5794   */\n            tag_128:\n                /* \"#utility.yul\":5738:5745   */\n              0x00\n                /* \"#utility.yul\":5781:5786   */\n              dup2\n                /* \"#utility.yul\":5774:5787   */\n              iszero\n                /* \"#utility.yul\":5767:5788   */\n              iszero\n                /* \"#utility.yul\":5756:5788   */\n              swap1\n              pop\n                /* \"#utility.yul\":5746:5794   */\n              swap2\n              swap1\n              pop\n              jump\t// out\n                /* \"#utility.yul\":5800:5926   */\n            tag_176:\n                /* \"#utility.yul\":5837:5844   */\n              0x00\n                /* \"#utility.yul\":5877:5919   */\n              0xffffffffffffffffffffffffffffffffffffffff\n                /* \"#utility.yul\":5870:5875   */\n              dup3\n                /* \"#utility.yul\":5866:5920   */\n              and\n                /* \"#utility.yul\":5855:5920   */\n              swap1\n              pop\n                /* \"#utility.yul\":5845:5926   */\n              swap2\n              swap1\n              pop\n              jump\t// out\n                /* \"#utility.yul\":5932:6009   */\n            tag_142:\n                /* \"#utility.yul\":5969:5976   */\n              0x00\n                /* \"#utility.yul\":5998:6003   */\n              dup2\n                /* \"#utility.yul\":5987:6003   */\n              swap1\n              pop\n                /* \"#utility.yul\":5977:6009   */\n              swap2\n              swap1\n              pop\n              jump\t// out\n                /* \"#utility.yul\":6015:6169   */\n            tag_98:\n                /* \"#utility.yul\":6099:6105   */\n              dup3\n                /* \"#utility.yul\":6094:6097   */\n              dup2\n                /* \"#utility.yul\":6089:6092   */\n              dup4\n                /* \"#utility.yul\":6076:6106   */\n              calldatacopy\n                /* \"#utility.yul\":6161:6162   */\n              0x00\n                /* \"#utility.yul\":6152:6158   */\n              dup4\n                /* \"#utility.yul\":6147:6150   */\n              dup4\n                /* \"#utility.yul\":6143:6159   */\n              add\n                /* \"#utility.yul\":6136:6163   */\n              mstore\n                /* \"#utility.yul\":6066:6169   */\n              pop\n              pop\n              pop\n              jump\t// out\n                /* \"#utility.yul\":6175:6482   */\n            tag_136:\n                /* \"#utility.yul\":6243:6244   */\n              0x00\n                /* \"#utility.yul\":6253:6366   */\n            tag_182:\n                /* \"#utility.yul\":6267:6273   */\n              dup4\n                /* \"#utility.yul\":6264:6265   */\n              dup2\n                /* \"#utility.yul\":6261:6274   */\n              lt\n                /* \"#utility.yul\":6253:6366   */\n              iszero\n              tag_184\n              jumpi\n                /* \"#utility.yul\":6352:6353   */\n              dup1\n                /* \"#utility.yul\":6347:6350   */\n              dup3\n                /* \"#utility.yul\":6343:6354   */\n              add\n                /* \"#utility.yul\":6337:6355   */\n              mload\n                /* \"#utility.yul\":6333:6334   */\n              dup2\n                /* \"#utility.yul\":6328:6331   */\n              dup5\n                /* \"#utility.yul\":6324:6335   */\n              add\n                /* \"#utility.yul\":6317:6356   */\n              mstore\n                /* \"#utility.yul\":6289:6291   */\n              0x20\n                /* \"#utility.yul\":6286:6287   */\n              dup2\n                /* \"#utility.yul\":6282:6292   */\n              add\n                /* \"#utility.yul\":6277:6292   */\n              swap1\n              pop\n                /* \"#utility.yul\":6253:6366   */\n              jump(tag_182)\n            tag_184:\n                /* \"#utility.yul\":6384:6390   */\n              dup4\n                /* \"#utility.yul\":6381:6382   */\n              dup2\n                /* \"#utility.yul\":6378:6391   */\n              gt\n                /* \"#utility.yul\":6375:6377   */\n              iszero\n              tag_185\n              jumpi\n                /* \"#utility.yul\":6464:6465   */\n              0x00\n                /* \"#utility.yul\":6455:6461   */\n              dup5\n                /* \"#utility.yul\":6450:6453   */\n              dup5\n                /* \"#utility.yul\":6446:6462   */\n              add\n                /* \"#utility.yul\":6439:6466   */\n              mstore\n                /* \"#utility.yul\":6375:6377   */\n            tag_185:\n                /* \"#utility.yul\":6224:6482   */\n              pop\n              pop\n              pop\n              pop\n              jump\t// out\n                /* \"#utility.yul\":6488:6808   */\n            tag_51:\n                /* \"#utility.yul\":6532:6538   */\n              0x00\n                /* \"#utility.yul\":6569:6570   */\n              0x02\n                /* \"#utility.yul\":6563:6567   */\n              dup3\n                /* \"#utility.yul\":6559:6571   */\n              div\n                /* \"#utility.yul\":6549:6571   */\n              swap1\n              pop\n                /* \"#utility.yul\":6616:6617   */\n              0x01\n                /* \"#utility.yul\":6610:6614   */\n              dup3\n                /* \"#utility.yul\":6606:6618   */\n              and\n                /* \"#utility.yul\":6637:6655   */\n              dup1\n                /* \"#utility.yul\":6627:6629   */\n              tag_187\n              jumpi\n                /* \"#utility.yul\":6693:6697   */\n              0x7f\n                /* \"#utility.yul\":6685:6691   */\n              dup3\n                /* \"#utility.yul\":6681:6698   */\n              and\n                /* \"#utility.yul\":6671:6698   */\n              swap2\n              pop\n                /* \"#utility.yul\":6627:6629   */\n            tag_187:\n                /* \"#utility.yul\":6755:6757   */\n              0x20\n                /* \"#utility.yul\":6747:6753   */\n              dup3\n                /* \"#utility.yul\":6744:6758   */\n              lt\n                /* \"#utility.yul\":6724:6742   */\n              dup2\n                /* \"#utility.yul\":6721:6759   */\n              eq\n                /* \"#utility.yul\":6718:6720   */\n              iszero\n              tag_188\n              jumpi\n                /* \"#utility.yul\":6774:6792   */\n              tag_189\n              tag_190\n              jump\t// in\n            tag_189:\n                /* \"#utility.yul\":6718:6720   */\n            tag_188:\n                /* \"#utility.yul\":6539:6808   */\n              pop\n              swap2\n              swap1\n              pop\n              jump\t// out\n                /* \"#utility.yul\":6814:7095   */\n            tag_165:\n                /* \"#utility.yul\":6897:6924   */\n              tag_192\n                /* \"#utility.yul\":6919:6923   */\n              dup3\n                /* \"#utility.yul\":6897:6924   */\n              tag_138\n              jump\t// in\n            tag_192:\n                /* \"#utility.yul\":6889:6895   */\n              dup2\n                /* \"#utility.yul\":6885:6925   */\n              add\n                /* \"#utility.yul\":7027:7033   */\n              dup2\n                /* \"#utility.yul\":7015:7025   */\n              dup2\n                /* \"#utility.yul\":7012:7034   */\n              lt\n                /* \"#utility.yul\":6991:7009   */\n              0xffffffffffffffff\n                /* \"#utility.yul\":6979:6989   */\n              dup3\n                /* \"#utility.yul\":6976:7010   */\n              gt\n                /* \"#utility.yul\":6973:7035   */\n              or\n                /* \"#utility.yul\":6970:6972   */\n              iszero\n              tag_193\n              jumpi\n                /* \"#utility.yul\":7038:7056   */\n              tag_194\n              tag_170\n              jump\t// in\n            tag_194:\n                /* \"#utility.yul\":6970:6972   */\n            tag_193:\n                /* \"#utility.yul\":7078:7088   */\n              dup1\n                /* \"#utility.yul\":7074:7076   */\n              0x40\n                /* \"#utility.yul\":7067:7089   */\n              mstore\n                /* \"#utility.yul\":6857:7095   */\n              pop\n              pop\n              pop\n              jump\t// out\n                /* \"#utility.yul\":7101:7334   */\n            tag_76:\n                /* \"#utility.yul\":7140:7143   */\n              0x00\n                /* \"#utility.yul\":7163:7187   */\n              tag_196\n                /* \"#utility.yul\":7181:7186   */\n              dup3\n                /* \"#utility.yul\":7163:7187   */\n              tag_142\n              jump\t// in\n            tag_196:\n                /* \"#utility.yul\":7154:7187   */\n              swap2\n              pop\n                /* \"#utility.yul\":7209:7275   */\n              0xffffffffffffffffffffffffffffffffffffffffffffffffffffffffffffffff\n                /* \"#utility.yul\":7202:7207   */\n              dup3\n                /* \"#utility.yul\":7199:7276   */\n              eq\n                /* \"#utility.yul\":7196:7198   */\n              iszero\n              tag_197\n              jumpi\n                /* \"#utility.yul\":7279:7297   */\n              tag_198\n              tag_199\n              jump\t// in\n            tag_198:\n                /* \"#utility.yul\":7196:7198   */\n            tag_197:\n                /* \"#utility.yul\":7326:7327   */\n              0x01\n                /* \"#utility.yul\":7319:7324   */\n              dup3\n                /* \"#utility.yul\":7315:7328   */\n              add\n                /* \"#utility.yul\":7308:7328   */\n              swap1\n              pop\n                /* \"#utility.yul\":7144:7334   */\n              swap2\n              swap1\n              pop\n              jump\t// out\n                /* \"#utility.yul\":7340:7520   */\n            tag_199:\n                /* \"#utility.yul\":7388:7465   */\n              0x4e487b7100000000000000000000000000000000000000000000000000000000\n                /* \"#utility.yul\":7385:7386   */\n              0x00\n                /* \"#utility.yul\":7378:7466   */\n              mstore\n                /* \"#utility.yul\":7485:7489   */\n              0x11\n                /* \"#utility.yul\":7482:7483   */\n              0x04\n                /* \"#utility.yul\":7475:7490   */\n              mstore\n                /* \"#utility.yul\":7509:7513   */\n              0x24\n                /* \"#utility.yul\":7506:7507   */\n              0x00\n                /* \"#utility.yul\":7499:7514   */\n              revert\n                /* \"#utility.yul\":7526:7706   */\n            tag_190:\n                /* \"#utility.yul\":7574:7651   */\n              0x4e487b7100000000000000000000000000000000000000000000000000000000\n                /* \"#utility.yul\":7571:7572   */\n              0x00\n                /* \"#utility.yul\":7564:7652   */\n              mstore\n                /* \"#utility.yul\":7671:7675   */\n              0x22\n                /* \"#utility.yul\":7668:7669   */\n              0x04\n                /* \"#utility.yul\":7661:7676   */\n              mstore\n                /* \"#utility.yul\":7695:7699   */\n              0x24\n                /* \"#utility.yul\":7692:7693   */\n              0x00\n                /* \"#utility.yul\":7685:7700   */\n              revert\n                /* \"#utility.yul\":7712:7892   */\n            tag_170:\n                /* \"#utility.yul\":7760:7837   */\n              0x4e487b7100000000000000000000000000000000000000000000000000000000\n                /* \"#utility.yul\":7757:7758   */\n              0x00\n                /* \"#utility.yul\":7750:7838   */\n              mstore\n                /* \"#utility.yul\":7857:7861   */\n              0x41\n                /* \"#utility.yul\":7854:7855   */\n              0x04\n                /* \"#utility.yul\":7847:7862   */\n              mstore\n                /* \"#utility.yul\":7881:7885   */\n              0x24\n                /* \"#utility.yul\":7878:7879   */\n              0x00\n                /* \"#utility.yul\":7871:7886   */\n              revert\n                /* \"#utility.yul\":7898:8015   */\n            tag_103:\n                /* \"#utility.yul\":8007:8008   */\n              0x00\n                /* \"#utility.yul\":8004:8005   */\n              dup1\n                /* \"#utility.yul\":7997:8009   */\n              revert\n                /* \"#utility.yul\":8021:8138   */\n            tag_96:\n                /* \"#utility.yul\":8130:8131   */\n              0x00\n                /* \"#utility.yul\":8127:8128   */\n              dup1\n                /* \"#utility.yul\":8120:8132   */\n              revert\n                /* \"#utility.yul\":8144:8261   */\n            tag_115:\n                /* \"#utility.yul\":8253:8254   */\n              0x00\n                /* \"#utility.yul\":8250:8251   */\n              dup1\n                /* \"#utility.yul\":8243:8255   */\n              revert\n                /* \"#utility.yul\":8267:8384   */\n            tag_112:\n                /* \"#utility.yul\":8376:8377   */\n              0x00\n                /* \"#utility.yul\":8373:8374   */\n              dup1\n                /* \"#utility.yul\":8366:8378   */\n              revert\n                /* \"#utility.yul\":8390:8492   */\n            tag_138:\n                /* \"#utility.yul\":8431:8437   */\n              0x00\n                /* \"#utility.yul\":8482:8484   */\n              0x1f\n                /* \"#utility.yul\":8478:8485   */\n              not\n                /* \"#utility.yul\":8473:8475   */\n              0x1f\n                /* \"#utility.yul\":8466:8471   */\n              dup4\n                /* \"#utility.yul\":8462:8476   */\n              add\n                /* \"#utility.yul\":8458:8486   */\n              and\n                /* \"#utility.yul\":8448:8486   */\n              swap1\n              pop\n                /* \"#utility.yul\":8438:8492   */\n              swap2\n              swap1\n              pop\n              jump\t// out\n                /* \"#utility.yul\":8498:8620   */\n            tag_108:\n                /* \"#utility.yul\":8571:8595   */\n              tag_209\n                /* \"#utility.yul\":8589:8594   */\n              dup2\n                /* \"#utility.yul\":8571:8595   */\n              tag_142\n              jump\t// in\n            tag_209:\n                /* \"#utility.yul\":8564:8569   */\n              dup2\n                /* \"#utility.yul\":8561:8596   */\n              eq\n                /* \"#utility.yul\":8551:8553   */\n              tag_210\n              jumpi\n                /* \"#utility.yul\":8610:8611   */\n              0x00\n                /* \"#utility.yul\":8607:8608   */\n              dup1\n                /* \"#utility.yul\":8600:8612   */\n              revert\n                /* \"#utility.yul\":8551:8553   */\n            tag_210:\n                /* \"#utility.yul\":8541:8620   */\n              pop\n              jump\t// out\n\n            auxdata: 0xa26469706673582212205be9c4d3f406ed9719b34915adec9fe2553a9aa23d7596828e0a229d859025d464736f6c63430008060033\n        }\n    }\n\n    auxdata: 0xa2646970667358221220949e12bb11d815afba2ab2e1c2a983988658705e9823a3ac78f715159345bea964736f6c63430008060033\n}\n","bytecode":{"linkReferences":{},"object":"608060405234801561001057600080fd5b506116d4806100206000396000f3fe60806040523480156200001157600080fd5b5060043610620000465760003560e01c8063b4a93c26146200004b578063c53142101462000081578063e29c188c14620000a3575b600080fd5b62000069600480360381019062000063919062000331565b620000d9565b6040516200007891906200049b565b60405180910390f35b6200008b620001be565b6040516200009a9190620004b8565b60405180910390f35b620000c16004803603810190620000bb919062000382565b6200024e565b604051620000d091906200049b565b60405180910390f35b6000808233604051620000ec906200028e565b620000f9929190620004dc565b604051809103906000f08015801562000116573d6000803e3d6000fd5b5090506000819080600181540180825580915050600190039060005260206000200160009091909190916101000a81548173ffffffffffffffffffffffffffffffffffffffff021916908373ffffffffffffffffffffffffffffffffffffffff1602179055507f89360f473a66a94be1b658d2eb891a03717a63e267fd5ea94ff69cd4b76a86ce81604051620001ad91906200049b565b60405180910390a180915050919050565b606060008054806020026020016040519081016040528092919081815260200182805480156200024457602002820191906000526020600020905b8160009054906101000a900473ffffffffffffffffffffffffffffffffffffffff1673ffffffffffffffffffffffffffffffffffffffff1681526020019060010190808311620001f9575b5050505050905090565b600081815481106200025f57600080fd5b906000526020600020016000915054906101000a900473ffffffffffffffffffffffffffffffffffffffff1681565b610fb380620006ec83390190565b6000620002b3620002ad8462000539565b62000510565b905082815260208101848484011115620002d257620002d1620006b1565b5b620002df84828562000602565b509392505050565b600082601f830112620002ff57620002fe620006ac565b5b8135620003118482602086016200029c565b91505092915050565b6000813590506200032b81620006d1565b92915050565b6000602082840312156200034a5762000349620006bb565b5b600082013567ffffffffffffffff8111156200036b576200036a620006b6565b5b6200037984828501620002e7565b91505092915050565b6000602082840312156200039b576200039a620006bb565b5b6000620003ab848285016200031a565b91505092915050565b6000620003c28383620003ce565b60208301905092915050565b620003d981620005c4565b82525050565b620003ea81620005c4565b82525050565b6000620003fd826200057f565b620004098185620005a2565b935062000416836200056f565b8060005b838110156200044d578151620004318882620003b4565b97506200043e8362000595565b9250506001810190506200041a565b5085935050505092915050565b600062000467826200058a565b620004738185620005b3565b93506200048581856020860162000611565b6200049081620006c0565b840191505092915050565b6000602082019050620004b26000830184620003df565b92915050565b60006020820190508181036000830152620004d48184620003f0565b905092915050565b60006040820190508181036000830152620004f881856200045a565b9050620005096020830184620003df565b9392505050565b60006200051c6200052f565b90506200052a828262000647565b919050565b6000604051905090565b600067ffffffffffffffff8211156200055757620005566200067d565b5b6200056282620006c0565b9050602081019050919050565b6000819050602082019050919050565b600081519050919050565b600081519050919050565b6000602082019050919050565b600082825260208201905092915050565b600082825260208201905092915050565b6000620005d182620005d8565b9050919050565b600073ffffffffffffffffffffffffffffffffffffffff82169050919050565b6000819050919050565b82818337600083830152505050565b60005b838110156200063157808201518184015260208101905062000614565b8381111562000641576000848401525b50505050565b6200065282620006c0565b810181811067ffffffffffffffff821117156200067457620006736200067d565b5b80604052505050565b7f4e487b7100000000000000000000000000000000000000000000000000000000600052604160045260246000fd5b600080fd5b600080fd5b600080fd5b600080fd5b6000601f19601f8301169050919050565b620006dc81620005f8565b8114620006e857600080fd5b5056fe60806040523480156200001157600080fd5b5060405162000fb338038062000fb38339818101604052810190620000379190620001ff565b806000806101000a81548173ffffffffffffffffffffffffffffffffffffffff021916908373ffffffffffffffffffffffffffffffffffffffff16021790555081600190805190602001906200008f929190620000ba565b50426002819055506001600460006101000a81548160ff021916908315150217905550505062000437565b828054620000c8906200032e565b90600052602060002090601f016020900481019282620000ec576000855562000138565b82601f106200010757805160ff191683800117855562000138565b8280016001018555821562000138579182015b82811115620001375782518255916020019190600101906200011a565b5b5090506200014791906200014b565b5090565b5b80821115620001665760008160009055506001016200014c565b5090565b6000620001816200017b846200028e565b62000265565b905082815260208101848484011115620001a0576200019f620003fd565b5b620001ad848285620002f8565b509392505050565b600081519050620001c6816200041d565b92915050565b600082601f830112620001e457620001e3620003f8565b5b8151620001f68482602086016200016a565b91505092915050565b6000806040838503121562000219576200021862000407565b5b600083015167ffffffffffffffff8111156200023a576200023962000402565b5b6200024885828601620001cc565b92505060206200025b85828601620001b5565b9150509250929050565b60006200027162000284565b90506200027f828262000364565b919050565b6000604051905090565b600067ffffffffffffffff821115620002ac57620002ab620003c9565b5b620002b7826200040c565b9050602081019050919050565b6000620002d182620002d8565b9050919050565b600073ffffffffffffffffffffffffffffffffffffffff82169050919050565b60005b8381101562000318578082015181840152602081019050620002fb565b8381111562000328576000848401525b50505050565b600060028204905060018216806200034757607f821691505b602082108114156200035e576200035d6200039a565b5b50919050565b6200036f826200040c565b810181811067ffffffffffffffff82111715620003915762000390620003c9565b5b80604052505050565b7f4e487b7100000000000000000000000000000000000000000000000000000000600052602260045260246000fd5b7f4e487b7100000000000000000000000000000000000000000000000000000000600052604160045260246000fd5b600080fd5b600080fd5b600080fd5b600080fd5b6000601f19601f8301169050919050565b6200042881620002c4565b81146200043457600080fd5b50565b610b6c80620004476000396000f3fe608060405234801561001057600080fd5b50600436106100935760003560e01c8063481c6a7511610066578063481c6a75146101145780634a79d50c146101325780635527b0dd146101505780638e53fb411461016e578063a63228191461018c57610093565b806302fb0c5e146100985780630b1e7f83146100b65780632f2770db146100e85780634051ddac146100f2575b600080fd5b6100a06101a8565b6040516100ad919061082f565b60405180910390f35b6100d060048036038101906100cb9190610727565b6101bb565b6040516100df9392919061086c565b60405180910390f35b6100f061029d565b005b6100fa610312565b60405161010b9594939291906107d5565b60405180910390f35b61011c6103f2565b60405161012991906107ba565b60405180910390f35b61013a610416565b604051610147919061084a565b60405180910390f35b6101586104a4565b60405161016591906108aa565b60405180910390f35b6101766104aa565b60405161018391906108aa565b60405180910390f35b6101a660048036038101906101a191906106de565b6104b0565b005b600460009054906101000a900460ff1681565b600581815481106101cb57600080fd5b90600052602060002090600302016000915090508060000180546101ee906109c1565b80601f016020809104026020016040519081016040528092919081815260200182805461021a906109c1565b80156102675780601f1061023c57610100808354040283529160200191610267565b820191906000526020600020905b81548152906001019060200180831161024a57829003601f168201915b5050505050908060010154908060020160009054906101000a900473ffffffffffffffffffffffffffffffffffffffff16905083565b60008054906101000a900473ffffffffffffffffffffffffffffffffffffffff1673ffffffffffffffffffffffffffffffffffffffff163373ffffffffffffffffffffffffffffffffffffffff16146102f557600080fd5b6000600460006101000a81548160ff021916908315150217905550565b6000606060008060008060009054906101000a900473ffffffffffffffffffffffffffffffffffffffff166001600254600354600460009054906101000a900460ff16838054610361906109c1565b80601f016020809104026020016040519081016040528092919081815260200182805461038d906109c1565b80156103da5780601f106103af576101008083540402835291602001916103da565b820191906000526020600020905b8154815290600101906020018083116103bd57829003601f168201915b50505050509350945094509450945094509091929394565b60008054906101000a900473ffffffffffffffffffffffffffffffffffffffff1681565b60018054610423906109c1565b80601f016020809104026020016040519081016040528092919081815260200182805461044f906109c1565b801561049c5780601f106104715761010080835404028352916020019161049c565b820191906000526020600020905b81548152906001019060200180831161047f57829003601f168201915b505050505081565b60025481565b60035481565b600460009054906101000a900460ff166104c957600080fd5b600060405180606001604052808381526020014281526020013373ffffffffffffffffffffffffffffffffffffffff168152509050600581908060018154018082558091505060019003906000526020600020906003020160009091909190915060008201518160000190805190602001906105469291906105b6565b506020820151816001015560408201518160020160006101000a81548173ffffffffffffffffffffffffffffffffffffffff021916908373ffffffffffffffffffffffffffffffffffffffff1602179055505050600360008154809291906105ad90610a24565b91905055505050565b8280546105c2906109c1565b90600052602060002090601f0160209004810192826105e4576000855561062b565b82601f106105fd57805160ff191683800117855561062b565b8280016001018555821561062b579182015b8281111561062a57825182559160200191906001019061060f565b5b509050610638919061063c565b5090565b5b8082111561065557600081600090555060010161063d565b5090565b600061066c610667846108ea565b6108c5565b90508281526020810184848401111561068857610687610aff565b5b61069384828561097f565b509392505050565b600082601f8301126106b0576106af610afa565b5b81356106c0848260208601610659565b91505092915050565b6000813590506106d881610b1f565b92915050565b6000602082840312156106f4576106f3610b09565b5b600082013567ffffffffffffffff81111561071257610711610b04565b5b61071e8482850161069b565b91505092915050565b60006020828403121561073d5761073c610b09565b5b600061074b848285016106c9565b91505092915050565b61075d81610937565b82525050565b61076c81610949565b82525050565b600061077d8261091b565b6107878185610926565b935061079781856020860161098e565b6107a081610b0e565b840191505092915050565b6107b481610975565b82525050565b60006020820190506107cf6000830184610754565b92915050565b600060a0820190506107ea6000830188610754565b81810360208301526107fc8187610772565b905061080b60408301866107ab565b61081860608301856107ab565b6108256080830184610763565b9695505050505050565b60006020820190506108446000830184610763565b92915050565b600060208201905081810360008301526108648184610772565b905092915050565b600060608201905081810360008301526108868186610772565b905061089560208301856107ab565b6108a26040830184610754565b949350505050565b60006020820190506108bf60008301846107ab565b92915050565b60006108cf6108e0565b90506108db82826109f3565b919050565b6000604051905090565b600067ffffffffffffffff82111561090557610904610acb565b5b61090e82610b0e565b9050602081019050919050565b600081519050919050565b600082825260208201905092915050565b600061094282610955565b9050919050565b60008115159050919050565b600073ffffffffffffffffffffffffffffffffffffffff82169050919050565b6000819050919050565b82818337600083830152505050565b60005b838110156109ac578082015181840152602081019050610991565b838111156109bb576000848401525b50505050565b600060028204905060018216806109d957607f821691505b602082108114156109ed576109ec610a9c565b5b50919050565b6109fc82610b0e565b810181811067ffffffffffffffff82111715610a1b57610a1a610acb565b5b80604052505050565b6000610a2f82610975565b91507fffffffffffffffffffffffffffffffffffffffffffffffffffffffffffffffff821415610a6257610a61610a6d565b5b600182019050919050565b7f4e487b7100000000000000000000000000000000000000000000000000000000600052601160045260246000fd5b7f4e487b7100000000000000000000000000000000000000000000000000000000600052602260045260246000fd5b7f4e487b7100000000000000000000000000000000000000000000000000000000600052604160045260246000fd5b600080fd5b600080fd5b600080fd5b600080fd5b6000601f19601f8301169050919050565b610b2881610975565b8114610b3357600080fd5b5056fea26469706673582212205be9c4d3f406ed9719b34915adec9fe2553a9aa23d7596828e0a229d859025d464736f6c63430008060033a2646970667358221220949e12bb11d815afba2ab2e1c2a983988658705e9823a3ac78f715159345bea964736f6c63430008060033","opcodes":"PUSH1 0x80 PUSH1 0x40 MSTORE CALLVALUE DUP1 ISZERO PUSH2 0x10 JUMPI PUSH1 0x0 DUP1 REVERT JUMPDEST POP PUSH2 0x16D4 DUP1 PUSH2 0x20 PUSH1 0x0 CODECOPY PUSH1 0x0 RETURN INVALID PUSH1 0x80 PUSH1 0x40 MSTORE CALLVALUE DUP1 ISZERO PUSH3 0x11 JUMPI PUSH1 0x0 DUP1 REVERT JUMPDEST POP PUSH1 0x4 CALLDATASIZE LT PUSH3 0x46 JUMPI PUSH1 0x0 CALLDATALOAD PUSH1 0xE0 SHR DUP1 PUSH4 0xB4A93C26 EQ PUSH3 0x4B JUMPI DUP1 PUSH4 0xC5314210 EQ PUSH3 0x81 JUMPI DUP1 PUSH4 0xE29C188C EQ PUSH3 0xA3 JUMPI JUMPDEST PUSH1 0x0 DUP1 REVERT JUMPDEST PUSH3 0x69 PUSH1 0x4 DUP1 CALLDATASIZE SUB DUP2 ADD SWAP1 PUSH3 0x63 SWAP2 SWAP1 PUSH3 0x331 JUMP JUMPDEST PUSH3 0xD9 JUMP JUMPDEST PUSH1 0x40 MLOAD PUSH3 0x78 SWAP2 SWAP1 PUSH3 0x49B JUMP JUMPDEST PUSH1 0x40 MLOAD DUP1 SWAP2 SUB SWAP1 RETURN JUMPDEST PUSH3 0x8B PUSH3 0x1BE JUMP JUMPDEST PUSH1 0x40 MLOAD PUSH3 0x9A SWAP2 SWAP1 PUSH3 0x4B8 JUMP JUMPDEST PUSH1 0x40 MLOAD DUP1 SWAP2 SUB SWAP1 RETURN JUMPDEST PUSH3 0xC1 PUSH1 0x4 DUP1 CALLDATASIZE SUB DUP2 ADD SWAP1 PUSH3 0xBB SWAP2 SWAP1 PUSH3 0x382 JUMP JUMPDEST PUSH3 0x24E JUMP JUMPDEST PUSH1 0x40 MLOAD PUSH3 0xD0 SWAP2 SWAP1 PUSH3 0x49B JUMP JUMPDEST PUSH1 0x40 MLOAD DUP1 SWAP2 SUB SWAP1 RETURN JUMPDEST PUSH1 0x0 DUP1 DUP3 CALLER PUSH1 0x40 MLOAD PUSH3 0xEC SWAP1 PUSH3 0x28E JUMP JUMPDEST PUSH3 0xF9 SWAP3 SWAP2 SWAP1 PUSH3 0x4DC JUMP JUMPDEST PUSH1 0x40 MLOAD DUP1 SWAP2 SUB SWAP1 PUSH1 0x0 CREATE DUP1 ISZERO DUP1 ISZERO PUSH3 0x116 JUMPI RETURNDATASIZE PUSH1 0x0 DUP1 RETURNDATACOPY RETURNDATASIZE PUSH1 0x0 REVERT JUMPDEST POP SWAP1 POP PUSH1 0x0 DUP2 SWAP1 DUP1 PUSH1 0x1 DUP2 SLOAD ADD DUP1 DUP3 SSTORE DUP1 SWAP2 POP POP PUSH1 0x1 SWAP1 SUB SWAP1 PUSH1 0x0 MSTORE PUSH1 0x20 PUSH1 0x0 KECCAK256 ADD PUSH1 0x0 SWAP1 SWAP2 SWAP1 SWAP2 SWAP1 SWAP2 PUSH2 0x100 EXP DUP2 SLOAD DUP2 PUSH20 0xFFFFFFFFFFFFFFFFFFFFFFFFFFFFFFFFFFFFFFFF MUL NOT AND SWAP1 DUP4 PUSH20 0xFFFFFFFFFFFFFFFFFFFFFFFFFFFFFFFFFFFFFFFF AND MUL OR SWAP1 SSTORE POP PUSH32 0x89360F473A66A94BE1B658D2EB891A03717A63E267FD5EA94FF69CD4B76A86CE DUP2 PUSH1 0x40 MLOAD PUSH3 0x1AD SWAP2 SWAP1 PUSH3 0x49B JUMP JUMPDEST PUSH1 0x40 MLOAD DUP1 SWAP2 SUB SWAP1 LOG1 DUP1 SWAP2 POP POP SWAP2 SWAP1 POP JUMP JUMPDEST PUSH1 0x60 PUSH1 0x0 DUP1 SLOAD DUP1 PUSH1 0x20 MUL PUSH1 0x20 ADD PUSH1 0x40 MLOAD SWAP1 DUP2 ADD PUSH1 0x40 MSTORE DUP1 SWAP3 SWAP2 SWAP1 DUP2 DUP2 MSTORE PUSH1 0x20 ADD DUP3 DUP1 SLOAD DUP1 ISZERO PUSH3 0x244 JUMPI PUSH1 0x20 MUL DUP3 ADD SWAP2 SWAP1 PUSH1 0x0 MSTORE PUSH1 0x20 PUSH1 0x0 KECCAK256 SWAP1 JUMPDEST DUP2 PUSH1 0x0 SWAP1 SLOAD SWAP1 PUSH2 0x100 EXP SWAP1 DIV PUSH20 0xFFFFFFFFFFFFFFFFFFFFFFFFFFFFFFFFFFFFFFFF AND PUSH20 0xFFFFFFFFFFFFFFFFFFFFFFFFFFFFFFFFFFFFFFFF AND DUP2 MSTORE PUSH1 0x20 ADD SWAP1 PUSH1 0x1 ADD SWAP1 DUP1 DUP4 GT PUSH3 0x1F9 JUMPI JUMPDEST POP POP POP POP POP SWAP1 POP SWAP1 JUMP JUMPDEST PUSH1 0x0 DUP2 DUP2 SLOAD DUP2 LT PUSH3 0x25F JUMPI PUSH1 0x0 DUP1 REVERT JUMPDEST SWAP1 PUSH1 0x0 MSTORE PUSH1 0x20 PUSH1 0x0 KECCAK256 ADD PUSH1 0x0 SWAP2 POP SLOAD SWAP1 PUSH2 0x100 EXP SWAP1 DIV PUSH20 0xFFFFFFFFFFFFFFFFFFFFFFFFFFFFFFFFFFFFFFFF AND DUP2 JUMP JUMPDEST PUSH2 0xFB3 DUP1 PUSH3 0x6EC DUP4 CODECOPY ADD SWAP1 JUMP JUMPDEST PUSH1 0x0 PUSH3 0x2B3 PUSH3 0x2AD DUP5 PUSH3 0x539 JUMP JUMPDEST PUSH3 0x510 JUMP JUMPDEST SWAP1 POP DUP3 DUP2 MSTORE PUSH1 0x20 DUP2 ADD DUP5 DUP5 DUP5 ADD GT ISZERO PUSH3 0x2D2 JUMPI PUSH3 0x2D1 PUSH3 0x6B1 JUMP JUMPDEST JUMPDEST PUSH3 0x2DF DUP5 DUP3 DUP6 PUSH3 0x602 JUMP JUMPDEST POP SWAP4 SWAP3 POP POP POP JUMP JUMPDEST PUSH1 0x0 DUP3 PUSH1 0x1F DUP4 ADD SLT PUSH3 0x2FF JUMPI PUSH3 0x2FE PUSH3 0x6AC JUMP JUMPDEST JUMPDEST DUP2 CALLDATALOAD PUSH3 0x311 DUP5 DUP3 PUSH1 0x20 DUP7 ADD PUSH3 0x29C JUMP JUMPDEST SWAP2 POP POP SWAP3 SWAP2 POP POP JUMP JUMPDEST PUSH1 0x0 DUP2 CALLDATALOAD SWAP1 POP PUSH3 0x32B DUP2 PUSH3 0x6D1 JUMP JUMPDEST SWAP3 SWAP2 POP POP JUMP JUMPDEST PUSH1 0x0 PUSH1 0x20 DUP3 DUP5 SUB SLT ISZERO PUSH3 0x34A JUMPI PUSH3 0x349 PUSH3 0x6BB JUMP JUMPDEST JUMPDEST PUSH1 0x0 DUP3 ADD CALLDATALOAD PUSH8 0xFFFFFFFFFFFFFFFF DUP2 GT ISZERO PUSH3 0x36B JUMPI PUSH3 0x36A PUSH3 0x6B6 JUMP JUMPDEST JUMPDEST PUSH3 0x379 DUP5 DUP3 DUP6 ADD PUSH3 0x2E7 JUMP JUMPDEST SWAP2 POP POP SWAP3 SWAP2 POP POP JUMP JUMPDEST PUSH1 0x0 PUSH1 0x20 DUP3 DUP5 SUB SLT ISZERO PUSH3 0x39B JUMPI PUSH3 0x39A PUSH3 0x6BB JUMP JUMPDEST JUMPDEST PUSH1 0x0 PUSH3 0x3AB DUP5 DUP3 DUP6 ADD PUSH3 0x31A JUMP JUMPDEST SWAP2 POP POP SWAP3 SWAP2 POP POP JUMP JUMPDEST PUSH1 0x0 PUSH3 0x3C2 DUP4 DUP4 PUSH3 0x3CE JUMP JUMPDEST PUSH1 0x20 DUP4 ADD SWAP1 POP SWAP3 SWAP2 POP POP JUMP JUMPDEST PUSH3 0x3D9 DUP2 PUSH3 0x5C4 JUMP JUMPDEST DUP3 MSTORE POP POP JUMP JUMPDEST PUSH3 0x3EA DUP2 PUSH3 0x5C4 JUMP JUMPDEST DUP3 MSTORE POP POP JUMP JUMPDEST PUSH1 0x0 PUSH3 0x3FD DUP3 PUSH3 0x57F JUMP JUMPDEST PUSH3 0x409 DUP2 DUP6 PUSH3 0x5A2 JUMP JUMPDEST SWAP4 POP PUSH3 0x416 DUP4 PUSH3 0x56F JUMP JUMPDEST DUP1 PUSH1 0x0 JUMPDEST DUP4 DUP2 LT ISZERO PUSH3 0x44D JUMPI DUP2 MLOAD PUSH3 0x431 DUP9 DUP3 PUSH3 0x3B4 JUMP JUMPDEST SWAP8 POP PUSH3 0x43E DUP4 PUSH3 0x595 JUMP JUMPDEST SWAP3 POP POP PUSH1 0x1 DUP2 ADD SWAP1 POP PUSH3 0x41A JUMP JUMPDEST POP DUP6 SWAP4 POP POP POP POP SWAP3 SWAP2 POP POP JUMP JUMPDEST PUSH1 0x0 PUSH3 0x467 DUP3 PUSH3 0x58A JUMP JUMPDEST PUSH3 0x473 DUP2 DUP6 PUSH3 0x5B3 JUMP JUMPDEST SWAP4 POP PUSH3 0x485 DUP2 DUP6 PUSH1 0x20 DUP7 ADD PUSH3 0x611 JUMP JUMPDEST PUSH3 0x490 DUP2 PUSH3 0x6C0 JUMP JUMPDEST DUP5 ADD SWAP2 POP POP SWAP3 SWAP2 POP POP JUMP JUMPDEST PUSH1 0x0 PUSH1 0x20 DUP3 ADD SWAP1 POP PUSH3 0x4B2 PUSH1 0x0 DUP4 ADD DUP5 PUSH3 0x3DF JUMP JUMPDEST SWAP3 SWAP2 POP POP JUMP JUMPDEST PUSH1 0x0 PUSH1 0x20 DUP3 ADD SWAP1 POP DUP2 DUP2 SUB PUSH1 0x0 DUP4 ADD MSTORE PUSH3 0x4D4 DUP2 DUP5 PUSH3 0x3F0 JUMP JUMPDEST SWAP1 POP SWAP3 SWAP2 POP POP JUMP JUMPDEST PUSH1 0x0 PUSH1 0x40 DUP3 ADD SWAP1 POP DUP2 DUP2 SUB PUSH1 0x0 DUP4 ADD MSTORE PUSH3 0x4F8 DUP2 DUP6 PUSH3 0x45A JUMP JUMPDEST SWAP1 POP PUSH3 0x509 PUSH1 0x20 DUP4 ADD DUP5 PUSH3 0x3DF JUMP JUMPDEST SWAP4 SWAP3 POP POP POP JUMP JUMPDEST PUSH1 0x0 PUSH3 0x51C PUSH3 0x52F JUMP JUMPDEST SWAP1 POP PUSH3 0x52A DUP3 DUP3 PUSH3 0x647 JUMP JUMPDEST SWAP2 SWAP1 POP JUMP JUMPDEST PUSH1 0x0 PUSH1 0x40 MLOAD SWAP1 POP SWAP1 JUMP JUMPDEST PUSH1 0x0 PUSH8 0xFFFFFFFFFFFFFFFF DUP3 GT ISZERO PUSH3 0x557 JUMPI PUSH3 0x556 PUSH3 0x67D JUMP JUMPDEST JUMPDEST PUSH3 0x562 DUP3 PUSH3 0x6C0 JUMP JUMPDEST SWAP1 POP PUSH1 0x20 DUP2 ADD SWAP1 POP SWAP2 SWAP1 POP JUMP JUMPDEST PUSH1 0x0 DUP2 SWAP1 POP PUSH1 0x20 DUP3 ADD SWAP1 POP SWAP2 SWAP1 POP JUMP JUMPDEST PUSH1 0x0 DUP2 MLOAD SWAP1 POP SWAP2 SWAP1 POP JUMP JUMPDEST PUSH1 0x0 DUP2 MLOAD SWAP1 POP SWAP2 SWAP1 POP JUMP JUMPDEST PUSH1 0x0 PUSH1 0x20 DUP3 ADD SWAP1 POP SWAP2 SWAP1 POP JUMP JUMPDEST PUSH1 0x0 DUP3 DUP3 MSTORE PUSH1 0x20 DUP3 ADD SWAP1 POP SWAP3 SWAP2 POP POP JUMP JUMPDEST PUSH1 0x0 DUP3 DUP3 MSTORE PUSH1 0x20 DUP3 ADD SWAP1 POP SWAP3 SWAP2 POP POP JUMP JUMPDEST PUSH1 0x0 PUSH3 0x5D1 DUP3 PUSH3 0x5D8 JUMP JUMPDEST SWAP1 POP SWAP2 SWAP1 POP JUMP JUMPDEST PUSH1 0x0 PUSH20 0xFFFFFFFFFFFFFFFFFFFFFFFFFFFFFFFFFFFFFFFF DUP3 AND SWAP1 POP SWAP2 SWAP1 POP JUMP JUMPDEST PUSH1 0x0 DUP2 SWAP1 POP SWAP2 SWAP1 POP JUMP JUMPDEST DUP3 DUP2 DUP4 CALLDATACOPY PUSH1 0x0 DUP4 DUP4 ADD MSTORE POP POP POP JUMP JUMPDEST PUSH1 0x0 JUMPDEST DUP4 DUP2 LT ISZERO PUSH3 0x631 JUMPI DUP1 DUP3 ADD MLOAD DUP2 DUP5 ADD MSTORE PUSH1 0x20 DUP2 ADD SWAP1 POP PUSH3 0x614 JUMP JUMPDEST DUP4 DUP2 GT ISZERO PUSH3 0x641 JUMPI PUSH1 0x0 DUP5 DUP5 ADD MSTORE JUMPDEST POP POP POP POP JUMP JUMPDEST PUSH3 0x652 DUP3 PUSH3 0x6C0 JUMP JUMPDEST DUP2 ADD DUP2 DUP2 LT PUSH8 0xFFFFFFFFFFFFFFFF DUP3 GT OR ISZERO PUSH3 0x674 JUMPI PUSH3 0x673 PUSH3 0x67D JUMP JUMPDEST JUMPDEST DUP1 PUSH1 0x40 MSTORE POP POP POP JUMP JUMPDEST PUSH32 0x4E487B7100000000000000000000000000000000000000000000000000000000 PUSH1 0x0 MSTORE PUSH1 0x41 PUSH1 0x4 MSTORE PUSH1 0x24 PUSH1 0x0 REVERT JUMPDEST PUSH1 0x0 DUP1 REVERT JUMPDEST PUSH1 0x0 DUP1 REVERT JUMPDEST PUSH1 0x0 DUP1 REVERT JUMPDEST PUSH1 0x0 DUP1 REVERT JUMPDEST PUSH1 0x0 PUSH1 0x1F NOT PUSH1 0x1F DUP4 ADD AND SWAP1 POP SWAP2 SWAP1 POP JUMP JUMPDEST PUSH3 0x6DC DUP2 PUSH3 0x5F8 JUMP JUMPDEST DUP2 EQ PUSH3 0x6E8 JUMPI PUSH1 0x0 DUP1 REVERT JUMPDEST POP JUMP INVALID PUSH1 0x80 PUSH1 0x40 MSTORE CALLVALUE DUP1 ISZERO PUSH3 0x11 JUMPI PUSH1 0x0 DUP1 REVERT JUMPDEST POP PUSH1 0x40 MLOAD PUSH3 0xFB3 CODESIZE SUB DUP1 PUSH3 0xFB3 DUP4 CODECOPY DUP2 DUP2 ADD PUSH1 0x40 MSTORE DUP2 ADD SWAP1 PUSH3 0x37 SWAP2 SWAP1 PUSH3 0x1FF JUMP JUMPDEST DUP1 PUSH1 0x0 DUP1 PUSH2 0x100 EXP DUP2 SLOAD DUP2 PUSH20 0xFFFFFFFFFFFFFFFFFFFFFFFFFFFFFFFFFFFFFFFF MUL NOT AND SWAP1 DUP4 PUSH20 0xFFFFFFFFFFFFFFFFFFFFFFFFFFFFFFFFFFFFFFFF AND MUL OR SWAP1 SSTORE POP DUP2 PUSH1 0x1 SWAP1 DUP1 MLOAD SWAP1 PUSH1 0x20 ADD SWAP1 PUSH3 0x8F SWAP3 SWAP2 SWAP1 PUSH3 0xBA JUMP JUMPDEST POP TIMESTAMP PUSH1 0x2 DUP2 SWAP1 SSTORE POP PUSH1 0x1 PUSH1 0x4 PUSH1 0x0 PUSH2 0x100 EXP DUP2 SLOAD DUP2 PUSH1 0xFF MUL NOT AND SWAP1 DUP4 ISZERO ISZERO MUL OR SWAP1 SSTORE POP POP POP PUSH3 0x437 JUMP JUMPDEST DUP3 DUP1 SLOAD PUSH3 0xC8 SWAP1 PUSH3 0x32E JUMP JUMPDEST SWAP1 PUSH1 0x0 MSTORE PUSH1 0x20 PUSH1 0x0 KECCAK256 SWAP1 PUSH1 0x1F ADD PUSH1 0x20 SWAP1 DIV DUP2 ADD SWAP3 DUP3 PUSH3 0xEC JUMPI PUSH1 0x0 DUP6 SSTORE PUSH3 0x138 JUMP JUMPDEST DUP3 PUSH1 0x1F LT PUSH3 0x107 JUMPI DUP1 MLOAD PUSH1 0xFF NOT AND DUP4 DUP1 ADD OR DUP6 SSTORE PUSH3 0x138 JUMP JUMPDEST DUP3 DUP1 ADD PUSH1 0x1 ADD DUP6 SSTORE DUP3 ISZERO PUSH3 0x138 JUMPI SWAP2 DUP3 ADD JUMPDEST DUP3 DUP2 GT ISZERO PUSH3 0x137 JUMPI DUP3 MLOAD DUP3 SSTORE SWAP2 PUSH1 0x20 ADD SWAP2 SWAP1 PUSH1 0x1 ADD SWAP1 PUSH3 0x11A JUMP JUMPDEST JUMPDEST POP SWAP1 POP PUSH3 0x147 SWAP2 SWAP1 PUSH3 0x14B JUMP JUMPDEST POP SWAP1 JUMP JUMPDEST JUMPDEST DUP1 DUP3 GT ISZERO PUSH3 0x166 JUMPI PUSH1 0x0 DUP2 PUSH1 0x0 SWAP1 SSTORE POP PUSH1 0x1 ADD PUSH3 0x14C JUMP JUMPDEST POP SWAP1 JUMP JUMPDEST PUSH1 0x0 PUSH3 0x181 PUSH3 0x17B DUP5 PUSH3 0x28E JUMP JUMPDEST PUSH3 0x265 JUMP JUMPDEST SWAP1 POP DUP3 DUP2 MSTORE PUSH1 0x20 DUP2 ADD DUP5 DUP5 DUP5 ADD GT ISZERO PUSH3 0x1A0 JUMPI PUSH3 0x19F PUSH3 0x3FD JUMP JUMPDEST JUMPDEST PUSH3 0x1AD DUP5 DUP3 DUP6 PUSH3 0x2F8 JUMP JUMPDEST POP SWAP4 SWAP3 POP POP POP JUMP JUMPDEST PUSH1 0x0 DUP2 MLOAD SWAP1 POP PUSH3 0x1C6 DUP2 PUSH3 0x41D JUMP JUMPDEST SWAP3 SWAP2 POP POP JUMP JUMPDEST PUSH1 0x0 DUP3 PUSH1 0x1F DUP4 ADD SLT PUSH3 0x1E4 JUMPI PUSH3 0x1E3 PUSH3 0x3F8 JUMP JUMPDEST JUMPDEST DUP2 MLOAD PUSH3 0x1F6 DUP5 DUP3 PUSH1 0x20 DUP7 ADD PUSH3 0x16A JUMP JUMPDEST SWAP2 POP POP SWAP3 SWAP2 POP POP JUMP JUMPDEST PUSH1 0x0 DUP1 PUSH1 0x40 DUP4 DUP6 SUB SLT ISZERO PUSH3 0x219 JUMPI PUSH3 0x218 PUSH3 0x407 JUMP JUMPDEST JUMPDEST PUSH1 0x0 DUP4 ADD MLOAD PUSH8 0xFFFFFFFFFFFFFFFF DUP2 GT ISZERO PUSH3 0x23A JUMPI PUSH3 0x239 PUSH3 0x402 JUMP JUMPDEST JUMPDEST PUSH3 0x248 DUP6 DUP3 DUP7 ADD PUSH3 0x1CC JUMP JUMPDEST SWAP3 POP POP PUSH1 0x20 PUSH3 0x25B DUP6 DUP3 DUP7 ADD PUSH3 0x1B5 JUMP JUMPDEST SWAP2 POP POP SWAP3 POP SWAP3 SWAP1 POP JUMP JUMPDEST PUSH1 0x0 PUSH3 0x271 PUSH3 0x284 JUMP JUMPDEST SWAP1 POP PUSH3 0x27F DUP3 DUP3 PUSH3 0x364 JUMP JUMPDEST SWAP2 SWAP1 POP JUMP JUMPDEST PUSH1 0x0 PUSH1 0x40 MLOAD SWAP1 POP SWAP1 JUMP JUMPDEST PUSH1 0x0 PUSH8 0xFFFFFFFFFFFFFFFF DUP3 GT ISZERO PUSH3 0x2AC JUMPI PUSH3 0x2AB PUSH3 0x3C9 JUMP JUMPDEST JUMPDEST PUSH3 0x2B7 DUP3 PUSH3 0x40C JUMP JUMPDEST SWAP1 POP PUSH1 0x20 DUP2 ADD SWAP1 POP SWAP2 SWAP1 POP JUMP JUMPDEST PUSH1 0x0 PUSH3 0x2D1 DUP3 PUSH3 0x2D8 JUMP JUMPDEST SWAP1 POP SWAP2 SWAP1 POP JUMP JUMPDEST PUSH1 0x0 PUSH20 0xFFFFFFFFFFFFFFFFFFFFFFFFFFFFFFFFFFFFFFFF DUP3 AND SWAP1 POP SWAP2 SWAP1 POP JUMP JUMPDEST PUSH1 0x0 JUMPDEST DUP4 DUP2 LT ISZERO PUSH3 0x318 JUMPI DUP1 DUP3 ADD MLOAD DUP2 DUP5 ADD MSTORE PUSH1 0x20 DUP2 ADD SWAP1 POP PUSH3 0x2FB JUMP JUMPDEST DUP4 DUP2 GT ISZERO PUSH3 0x328 JUMPI PUSH1 0x0 DUP5 DUP5 ADD MSTORE JUMPDEST POP POP POP POP JUMP JUMPDEST PUSH1 0x0 PUSH1 0x2 DUP3 DIV SWAP1 POP PUSH1 0x1 DUP3 AND DUP1 PUSH3 0x347 JUMPI PUSH1 0x7F DUP3 AND SWAP2 POP JUMPDEST PUSH1 0x20 DUP3 LT DUP2 EQ ISZERO PUSH3 0x35E JUMPI PUSH3 0x35D PUSH3 0x39A JUMP JUMPDEST JUMPDEST POP SWAP2 SWAP1 POP JUMP JUMPDEST PUSH3 0x36F DUP3 PUSH3 0x40C JUMP JUMPDEST DUP2 ADD DUP2 DUP2 LT PUSH8 0xFFFFFFFFFFFFFFFF DUP3 GT OR ISZERO PUSH3 0x391 JUMPI PUSH3 0x390 PUSH3 0x3C9 JUMP JUMPDEST JUMPDEST DUP1 PUSH1 0x40 MSTORE POP POP POP JUMP JUMPDEST PUSH32 0x4E487B7100000000000000000000000000000000000000000000000000000000 PUSH1 0x0 MSTORE PUSH1 0x22 PUSH1 0x4 MSTORE PUSH1 0x24 PUSH1 0x0 REVERT JUMPDEST PUSH32 0x4E487B7100000000000000000000000000000000000000000000000000000000 PUSH1 0x0 MSTORE PUSH1 0x41 PUSH1 0x4 MSTORE PUSH1 0x24 PUSH1 0x0 REVERT JUMPDEST PUSH1 0x0 DUP1 REVERT JUMPDEST PUSH1 0x0 DUP1 REVERT JUMPDEST PUSH1 0x0 DUP1 REVERT JUMPDEST PUSH1 0x0 DUP1 REVERT JUMPDEST PUSH1 0x0 PUSH1 0x1F NOT PUSH1 0x1F DUP4 ADD AND SWAP1 POP SWAP2 SWAP1 POP JUMP JUMPDEST PUSH3 0x428 DUP2 PUSH3 0x2C4 JUMP JUMPDEST DUP2 EQ PUSH3 0x434 JUMPI PUSH1 0x0 DUP1 REVERT JUMPDEST POP JUMP JUMPDEST PUSH2 0xB6C DUP1 PUSH3 0x447 PUSH1 0x0 CODECOPY PUSH1 0x0 RETURN INVALID PUSH1 0x80 PUSH1 0x40 MSTORE CALLVALUE DUP1 ISZERO PUSH2 0x10 JUMPI PUSH1 0x0 DUP1 REVERT JUMPDEST POP PUSH1 0x4 CALLDATASIZE LT PUSH2 0x93 JUMPI PUSH1 0x0 CALLDATALOAD PUSH1 0xE0 SHR DUP1 PUSH4 0x481C6A75 GT PUSH2 0x66 JUMPI DUP1 PUSH4 0x481C6A75 EQ PUSH2 0x114 JUMPI DUP1 PUSH4 0x4A79D50C EQ PUSH2 0x132 JUMPI DUP1 PUSH4 0x5527B0DD EQ PUSH2 0x150 JUMPI DUP1 PUSH4 0x8E53FB41 EQ PUSH2 0x16E JUMPI DUP1 PUSH4 0xA6322819 EQ PUSH2 0x18C JUMPI PUSH2 0x93 JUMP JUMPDEST DUP1 PUSH4 0x2FB0C5E EQ PUSH2 0x98 JUMPI DUP1 PUSH4 0xB1E7F83 EQ PUSH2 0xB6 JUMPI DUP1 PUSH4 0x2F2770DB EQ PUSH2 0xE8 JUMPI DUP1 PUSH4 0x4051DDAC EQ PUSH2 0xF2 JUMPI JUMPDEST PUSH1 0x0 DUP1 REVERT JUMPDEST PUSH2 0xA0 PUSH2 0x1A8 JUMP JUMPDEST PUSH1 0x40 MLOAD PUSH2 0xAD SWAP2 SWAP1 PUSH2 0x82F JUMP JUMPDEST PUSH1 0x40 MLOAD DUP1 SWAP2 SUB SWAP1 RETURN JUMPDEST PUSH2 0xD0 PUSH1 0x4 DUP1 CALLDATASIZE SUB DUP2 ADD SWAP1 PUSH2 0xCB SWAP2 SWAP1 PUSH2 0x727 JUMP JUMPDEST PUSH2 0x1BB JUMP JUMPDEST PUSH1 0x40 MLOAD PUSH2 0xDF SWAP4 SWAP3 SWAP2 SWAP1 PUSH2 0x86C JUMP JUMPDEST PUSH1 0x40 MLOAD DUP1 SWAP2 SUB SWAP1 RETURN JUMPDEST PUSH2 0xF0 PUSH2 0x29D JUMP JUMPDEST STOP JUMPDEST PUSH2 0xFA PUSH2 0x312 JUMP JUMPDEST PUSH1 0x40 MLOAD PUSH2 0x10B SWAP6 SWAP5 SWAP4 SWAP3 SWAP2 SWAP1 PUSH2 0x7D5 JUMP JUMPDEST PUSH1 0x40 MLOAD DUP1 SWAP2 SUB SWAP1 RETURN JUMPDEST PUSH2 0x11C PUSH2 0x3F2 JUMP JUMPDEST PUSH1 0x40 MLOAD PUSH2 0x129 SWAP2 SWAP1 PUSH2 0x7BA JUMP JUMPDEST PUSH1 0x40 MLOAD DUP1 SWAP2 SUB SWAP1 RETURN JUMPDEST PUSH2 0x13A PUSH2 0x416 JUMP JUMPDEST PUSH1 0x40 MLOAD PUSH2 0x147 SWAP2 SWAP1 PUSH2 0x84A JUMP JUMPDEST PUSH1 0x40 MLOAD DUP1 SWAP2 SUB SWAP1 RETURN JUMPDEST PUSH2 0x158 PUSH2 0x4A4 JUMP JUMPDEST PUSH1 0x40 MLOAD PUSH2 0x165 SWAP2 SWAP1 PUSH2 0x8AA JUMP JUMPDEST PUSH1 0x40 MLOAD DUP1 SWAP2 SUB SWAP1 RETURN JUMPDEST PUSH2 0x176 PUSH2 0x4AA JUMP JUMPDEST PUSH1 0x40 MLOAD PUSH2 0x183 SWAP2 SWAP1 PUSH2 0x8AA JUMP JUMPDEST PUSH1 0x40 MLOAD DUP1 SWAP2 SUB SWAP1 RETURN JUMPDEST PUSH2 0x1A6 PUSH1 0x4 DUP1 CALLDATASIZE SUB DUP2 ADD SWAP1 PUSH2 0x1A1 SWAP2 SWAP1 PUSH2 0x6DE JUMP JUMPDEST PUSH2 0x4B0 JUMP JUMPDEST STOP JUMPDEST PUSH1 0x4 PUSH1 0x0 SWAP1 SLOAD SWAP1 PUSH2 0x100 EXP SWAP1 DIV PUSH1 0xFF AND DUP2 JUMP JUMPDEST PUSH1 0x5 DUP2 DUP2 SLOAD DUP2 LT PUSH2 0x1CB JUMPI PUSH1 0x0 DUP1 REVERT JUMPDEST SWAP1 PUSH1 0x0 MSTORE PUSH1 0x20 PUSH1 0x0 KECCAK256 SWAP1 PUSH1 0x3 MUL ADD PUSH1 0x0 SWAP2 POP SWAP1 POP DUP1 PUSH1 0x0 ADD DUP1 SLOAD PUSH2 0x1EE SWAP1 PUSH2 0x9C1 JUMP JUMPDEST DUP1 PUSH1 0x1F ADD PUSH1 0x20 DUP1 SWAP2 DIV MUL PUSH1 0x20 ADD PUSH1 0x40 MLOAD SWAP1 DUP2 ADD PUSH1 0x40 MSTORE DUP1 SWAP3 SWAP2 SWAP1 DUP2 DUP2 MSTORE PUSH1 0x20 ADD DUP3 DUP1 SLOAD PUSH2 0x21A SWAP1 PUSH2 0x9C1 JUMP JUMPDEST DUP1 ISZERO PUSH2 0x267 JUMPI DUP1 PUSH1 0x1F LT PUSH2 0x23C JUMPI PUSH2 0x100 DUP1 DUP4 SLOAD DIV MUL DUP4 MSTORE SWAP2 PUSH1 0x20 ADD SWAP2 PUSH2 0x267 JUMP JUMPDEST DUP3 ADD SWAP2 SWAP1 PUSH1 0x0 MSTORE PUSH1 0x20 PUSH1 0x0 KECCAK256 SWAP1 JUMPDEST DUP2 SLOAD DUP2 MSTORE SWAP1 PUSH1 0x1 ADD SWAP1 PUSH1 0x20 ADD DUP1 DUP4 GT PUSH2 0x24A JUMPI DUP3 SWAP1 SUB PUSH1 0x1F AND DUP3 ADD SWAP2 JUMPDEST POP POP POP POP POP SWAP1 DUP1 PUSH1 0x1 ADD SLOAD SWAP1 DUP1 PUSH1 0x2 ADD PUSH1 0x0 SWAP1 SLOAD SWAP1 PUSH2 0x100 EXP SWAP1 DIV PUSH20 0xFFFFFFFFFFFFFFFFFFFFFFFFFFFFFFFFFFFFFFFF AND SWAP1 POP DUP4 JUMP JUMPDEST PUSH1 0x0 DUP1 SLOAD SWAP1 PUSH2 0x100 EXP SWAP1 DIV PUSH20 0xFFFFFFFFFFFFFFFFFFFFFFFFFFFFFFFFFFFFFFFF AND PUSH20 0xFFFFFFFFFFFFFFFFFFFFFFFFFFFFFFFFFFFFFFFF AND CALLER PUSH20 0xFFFFFFFFFFFFFFFFFFFFFFFFFFFFFFFFFFFFFFFF AND EQ PUSH2 0x2F5 JUMPI PUSH1 0x0 DUP1 REVERT JUMPDEST PUSH1 0x0 PUSH1 0x4 PUSH1 0x0 PUSH2 0x100 EXP DUP2 SLOAD DUP2 PUSH1 0xFF MUL NOT AND SWAP1 DUP4 ISZERO ISZERO MUL OR SWAP1 SSTORE POP JUMP JUMPDEST PUSH1 0x0 PUSH1 0x60 PUSH1 0x0 DUP1 PUSH1 0x0 DUP1 PUSH1 0x0 SWAP1 SLOAD SWAP1 PUSH2 0x100 EXP SWAP1 DIV PUSH20 0xFFFFFFFFFFFFFFFFFFFFFFFFFFFFFFFFFFFFFFFF AND PUSH1 0x1 PUSH1 0x2 SLOAD PUSH1 0x3 SLOAD PUSH1 0x4 PUSH1 0x0 SWAP1 SLOAD SWAP1 PUSH2 0x100 EXP SWAP1 DIV PUSH1 0xFF AND DUP4 DUP1 SLOAD PUSH2 0x361 SWAP1 PUSH2 0x9C1 JUMP JUMPDEST DUP1 PUSH1 0x1F ADD PUSH1 0x20 DUP1 SWAP2 DIV MUL PUSH1 0x20 ADD PUSH1 0x40 MLOAD SWAP1 DUP2 ADD PUSH1 0x40 MSTORE DUP1 SWAP3 SWAP2 SWAP1 DUP2 DUP2 MSTORE PUSH1 0x20 ADD DUP3 DUP1 SLOAD PUSH2 0x38D SWAP1 PUSH2 0x9C1 JUMP JUMPDEST DUP1 ISZERO PUSH2 0x3DA JUMPI DUP1 PUSH1 0x1F LT PUSH2 0x3AF JUMPI PUSH2 0x100 DUP1 DUP4 SLOAD DIV MUL DUP4 MSTORE SWAP2 PUSH1 0x20 ADD SWAP2 PUSH2 0x3DA JUMP JUMPDEST DUP3 ADD SWAP2 SWAP1 PUSH1 0x0 MSTORE PUSH1 0x20 PUSH1 0x0 KECCAK256 SWAP1 JUMPDEST DUP2 SLOAD DUP2 MSTORE SWAP1 PUSH1 0x1 ADD SWAP1 PUSH1 0x20 ADD DUP1 DUP4 GT PUSH2 0x3BD JUMPI DUP3 SWAP1 SUB PUSH1 0x1F AND DUP3 ADD SWAP2 JUMPDEST POP POP POP POP POP SWAP4 POP SWAP5 POP SWAP5 POP SWAP5 POP SWAP5 POP SWAP5 POP SWAP1 SWAP2 SWAP3 SWAP4 SWAP5 JUMP JUMPDEST PUSH1 0x0 DUP1 SLOAD SWAP1 PUSH2 0x100 EXP SWAP1 DIV PUSH20 0xFFFFFFFFFFFFFFFFFFFFFFFFFFFFFFFFFFFFFFFF AND DUP2 JUMP JUMPDEST PUSH1 0x1 DUP1 SLOAD PUSH2 0x423 SWAP1 PUSH2 0x9C1 JUMP JUMPDEST DUP1 PUSH1 0x1F ADD PUSH1 0x20 DUP1 SWAP2 DIV MUL PUSH1 0x20 ADD PUSH1 0x40 MLOAD SWAP1 DUP2 ADD PUSH1 0x40 MSTORE DUP1 SWAP3 SWAP2 SWAP1 DUP2 DUP2 MSTORE PUSH1 0x20 ADD DUP3 DUP1 SLOAD PUSH2 0x44F SWAP1 PUSH2 0x9C1 JUMP JUMPDEST DUP1 ISZERO PUSH2 0x49C JUMPI DUP1 PUSH1 0x1F LT PUSH2 0x471 JUMPI PUSH2 0x100 DUP1 DUP4 SLOAD DIV MUL DUP4 MSTORE SWAP2 PUSH1 0x20 ADD SWAP2 PUSH2 0x49C JUMP JUMPDEST DUP3 ADD SWAP2 SWAP1 PUSH1 0x0 MSTORE PUSH1 0x20 PUSH1 0x0 KECCAK256 SWAP1 JUMPDEST DUP2 SLOAD DUP2 MSTORE SWAP1 PUSH1 0x1 ADD SWAP1 PUSH1 0x20 ADD DUP1 DUP4 GT PUSH2 0x47F JUMPI DUP3 SWAP1 SUB PUSH1 0x1F AND DUP3 ADD SWAP2 JUMPDEST POP POP POP POP POP DUP2 JUMP JUMPDEST PUSH1 0x2 SLOAD DUP2 JUMP JUMPDEST PUSH1 0x3 SLOAD DUP2 JUMP JUMPDEST PUSH1 0x4 PUSH1 0x0 SWAP1 SLOAD SWAP1 PUSH2 0x100 EXP SWAP1 DIV PUSH1 0xFF AND PUSH2 0x4C9 JUMPI PUSH1 0x0 DUP1 REVERT JUMPDEST PUSH1 0x0 PUSH1 0x40 MLOAD DUP1 PUSH1 0x60 ADD PUSH1 0x40 MSTORE DUP1 DUP4 DUP2 MSTORE PUSH1 0x20 ADD TIMESTAMP DUP2 MSTORE PUSH1 0x20 ADD CALLER PUSH20 0xFFFFFFFFFFFFFFFFFFFFFFFFFFFFFFFFFFFFFFFF AND DUP2 MSTORE POP SWAP1 POP PUSH1 0x5 DUP2 SWAP1 DUP1 PUSH1 0x1 DUP2 SLOAD ADD DUP1 DUP3 SSTORE DUP1 SWAP2 POP POP PUSH1 0x1 SWAP1 SUB SWAP1 PUSH1 0x0 MSTORE PUSH1 0x20 PUSH1 0x0 KECCAK256 SWAP1 PUSH1 0x3 MUL ADD PUSH1 0x0 SWAP1 SWAP2 SWAP1 SWAP2 SWAP1 SWAP2 POP PUSH1 0x0 DUP3 ADD MLOAD DUP2 PUSH1 0x0 ADD SWAP1 DUP1 MLOAD SWAP1 PUSH1 0x20 ADD SWAP1 PUSH2 0x546 SWAP3 SWAP2 SWAP1 PUSH2 0x5B6 JUMP JUMPDEST POP PUSH1 0x20 DUP3 ADD MLOAD DUP2 PUSH1 0x1 ADD SSTORE PUSH1 0x40 DUP3 ADD MLOAD DUP2 PUSH1 0x2 ADD PUSH1 0x0 PUSH2 0x100 EXP DUP2 SLOAD DUP2 PUSH20 0xFFFFFFFFFFFFFFFFFFFFFFFFFFFFFFFFFFFFFFFF MUL NOT AND SWAP1 DUP4 PUSH20 0xFFFFFFFFFFFFFFFFFFFFFFFFFFFFFFFFFFFFFFFF AND MUL OR SWAP1 SSTORE POP POP POP PUSH1 0x3 PUSH1 0x0 DUP2 SLOAD DUP1 SWAP3 SWAP2 SWAP1 PUSH2 0x5AD SWAP1 PUSH2 0xA24 JUMP JUMPDEST SWAP2 SWAP1 POP SSTORE POP POP POP JUMP JUMPDEST DUP3 DUP1 SLOAD PUSH2 0x5C2 SWAP1 PUSH2 0x9C1 JUMP JUMPDEST SWAP1 PUSH1 0x0 MSTORE PUSH1 0x20 PUSH1 0x0 KECCAK256 SWAP1 PUSH1 0x1F ADD PUSH1 0x20 SWAP1 DIV DUP2 ADD SWAP3 DUP3 PUSH2 0x5E4 JUMPI PUSH1 0x0 DUP6 SSTORE PUSH2 0x62B JUMP JUMPDEST DUP3 PUSH1 0x1F LT PUSH2 0x5FD JUMPI DUP1 MLOAD PUSH1 0xFF NOT AND DUP4 DUP1 ADD OR DUP6 SSTORE PUSH2 0x62B JUMP JUMPDEST DUP3 DUP1 ADD PUSH1 0x1 ADD DUP6 SSTORE DUP3 ISZERO PUSH2 0x62B JUMPI SWAP2 DUP3 ADD JUMPDEST DUP3 DUP2 GT ISZERO PUSH2 0x62A JUMPI DUP3 MLOAD DUP3 SSTORE SWAP2 PUSH1 0x20 ADD SWAP2 SWAP1 PUSH1 0x1 ADD SWAP1 PUSH2 0x60F JUMP JUMPDEST JUMPDEST POP SWAP1 POP PUSH2 0x638 SWAP2 SWAP1 PUSH2 0x63C JUMP JUMPDEST POP SWAP1 JUMP JUMPDEST JUMPDEST DUP1 DUP3 GT ISZERO PUSH2 0x655 JUMPI PUSH1 0x0 DUP2 PUSH1 0x0 SWAP1 SSTORE POP PUSH1 0x1 ADD PUSH2 0x63D JUMP JUMPDEST POP SWAP1 JUMP JUMPDEST PUSH1 0x0 PUSH2 0x66C PUSH2 0x667 DUP5 PUSH2 0x8EA JUMP JUMPDEST PUSH2 0x8C5 JUMP JUMPDEST SWAP1 POP DUP3 DUP2 MSTORE PUSH1 0x20 DUP2 ADD DUP5 DUP5 DUP5 ADD GT ISZERO PUSH2 0x688 JUMPI PUSH2 0x687 PUSH2 0xAFF JUMP JUMPDEST JUMPDEST PUSH2 0x693 DUP5 DUP3 DUP6 PUSH2 0x97F JUMP JUMPDEST POP SWAP4 SWAP3 POP POP POP JUMP JUMPDEST PUSH1 0x0 DUP3 PUSH1 0x1F DUP4 ADD SLT PUSH2 0x6B0 JUMPI PUSH2 0x6AF PUSH2 0xAFA JUMP JUMPDEST JUMPDEST DUP2 CALLDATALOAD PUSH2 0x6C0 DUP5 DUP3 PUSH1 0x20 DUP7 ADD PUSH2 0x659 JUMP JUMPDEST SWAP2 POP POP SWAP3 SWAP2 POP POP JUMP JUMPDEST PUSH1 0x0 DUP2 CALLDATALOAD SWAP1 POP PUSH2 0x6D8 DUP2 PUSH2 0xB1F JUMP JUMPDEST SWAP3 SWAP2 POP POP JUMP JUMPDEST PUSH1 0x0 PUSH1 0x20 DUP3 DUP5 SUB SLT ISZERO PUSH2 0x6F4 JUMPI PUSH2 0x6F3 PUSH2 0xB09 JUMP JUMPDEST JUMPDEST PUSH1 0x0 DUP3 ADD CALLDATALOAD PUSH8 0xFFFFFFFFFFFFFFFF DUP2 GT ISZERO PUSH2 0x712 JUMPI PUSH2 0x711 PUSH2 0xB04 JUMP JUMPDEST JUMPDEST PUSH2 0x71E DUP5 DUP3 DUP6 ADD PUSH2 0x69B JUMP JUMPDEST SWAP2 POP POP SWAP3 SWAP2 POP POP JUMP JUMPDEST PUSH1 0x0 PUSH1 0x20 DUP3 DUP5 SUB SLT ISZERO PUSH2 0x73D JUMPI PUSH2 0x73C PUSH2 0xB09 JUMP JUMPDEST JUMPDEST PUSH1 0x0 PUSH2 0x74B DUP5 DUP3 DUP6 ADD PUSH2 0x6C9 JUMP JUMPDEST SWAP2 POP POP SWAP3 SWAP2 POP POP JUMP JUMPDEST PUSH2 0x75D DUP2 PUSH2 0x937 JUMP JUMPDEST DUP3 MSTORE POP POP JUMP JUMPDEST PUSH2 0x76C DUP2 PUSH2 0x949 JUMP JUMPDEST DUP3 MSTORE POP POP JUMP JUMPDEST PUSH1 0x0 PUSH2 0x77D DUP3 PUSH2 0x91B JUMP JUMPDEST PUSH2 0x787 DUP2 DUP6 PUSH2 0x926 JUMP JUMPDEST SWAP4 POP PUSH2 0x797 DUP2 DUP6 PUSH1 0x20 DUP7 ADD PUSH2 0x98E JUMP JUMPDEST PUSH2 0x7A0 DUP2 PUSH2 0xB0E JUMP JUMPDEST DUP5 ADD SWAP2 POP POP SWAP3 SWAP2 POP POP JUMP JUMPDEST PUSH2 0x7B4 DUP2 PUSH2 0x975 JUMP JUMPDEST DUP3 MSTORE POP POP JUMP JUMPDEST PUSH1 0x0 PUSH1 0x20 DUP3 ADD SWAP1 POP PUSH2 0x7CF PUSH1 0x0 DUP4 ADD DUP5 PUSH2 0x754 JUMP JUMPDEST SWAP3 SWAP2 POP POP JUMP JUMPDEST PUSH1 0x0 PUSH1 0xA0 DUP3 ADD SWAP1 POP PUSH2 0x7EA PUSH1 0x0 DUP4 ADD DUP9 PUSH2 0x754 JUMP JUMPDEST DUP2 DUP2 SUB PUSH1 0x20 DUP4 ADD MSTORE PUSH2 0x7FC DUP2 DUP8 PUSH2 0x772 JUMP JUMPDEST SWAP1 POP PUSH2 0x80B PUSH1 0x40 DUP4 ADD DUP7 PUSH2 0x7AB JUMP JUMPDEST PUSH2 0x818 PUSH1 0x60 DUP4 ADD DUP6 PUSH2 0x7AB JUMP JUMPDEST PUSH2 0x825 PUSH1 0x80 DUP4 ADD DUP5 PUSH2 0x763 JUMP JUMPDEST SWAP7 SWAP6 POP POP POP POP POP POP JUMP JUMPDEST PUSH1 0x0 PUSH1 0x20 DUP3 ADD SWAP1 POP PUSH2 0x844 PUSH1 0x0 DUP4 ADD DUP5 PUSH2 0x763 JUMP JUMPDEST SWAP3 SWAP2 POP POP JUMP JUMPDEST PUSH1 0x0 PUSH1 0x20 DUP3 ADD SWAP1 POP DUP2 DUP2 SUB PUSH1 0x0 DUP4 ADD MSTORE PUSH2 0x864 DUP2 DUP5 PUSH2 0x772 JUMP JUMPDEST SWAP1 POP SWAP3 SWAP2 POP POP JUMP JUMPDEST PUSH1 0x0 PUSH1 0x60 DUP3 ADD SWAP1 POP DUP2 DUP2 SUB PUSH1 0x0 DUP4 ADD MSTORE PUSH2 0x886 DUP2 DUP7 PUSH2 0x772 JUMP JUMPDEST SWAP1 POP PUSH2 0x895 PUSH1 0x20 DUP4 ADD DUP6 PUSH2 0x7AB JUMP JUMPDEST PUSH2 0x8A2 PUSH1 0x40 DUP4 ADD DUP5 PUSH2 0x754 JUMP JUMPDEST SWAP5 SWAP4 POP POP POP POP JUMP JUMPDEST PUSH1 0x0 PUSH1 0x20 DUP3 ADD SWAP1 POP PUSH2 0x8BF PUSH1 0x0 DUP4 ADD DUP5 PUSH2 0x7AB JUMP JUMPDEST SWAP3 SWAP2 POP POP JUMP JUMPDEST PUSH1 0x0 PUSH2 0x8CF PUSH2 0x8E0 JUMP JUMPDEST SWAP1 POP PUSH2 0x8DB DUP3 DUP3 PUSH2 0x9F3 JUMP JUMPDEST SWAP2 SWAP1 POP JUMP JUMPDEST PUSH1 0x0 PUSH1 0x40 MLOAD SWAP1 POP SWAP1 JUMP JUMPDEST PUSH1 0x0 PUSH8 0xFFFFFFFFFFFFFFFF DUP3 GT ISZERO PUSH2 0x905 JUMPI PUSH2 0x904 PUSH2 0xACB JUMP JUMPDEST JUMPDEST PUSH2 0x90E DUP3 PUSH2 0xB0E JUMP JUMPDEST SWAP1 POP PUSH1 0x20 DUP2 ADD SWAP1 POP SWAP2 SWAP1 POP JUMP JUMPDEST PUSH1 0x0 DUP2 MLOAD SWAP1 POP SWAP2 SWAP1 POP JUMP JUMPDEST PUSH1 0x0 DUP3 DUP3 MSTORE PUSH1 0x20 DUP3 ADD SWAP1 POP SWAP3 SWAP2 POP POP JUMP JUMPDEST PUSH1 0x0 PUSH2 0x942 DUP3 PUSH2 0x955 JUMP JUMPDEST SWAP1 POP SWAP2 SWAP1 POP JUMP JUMPDEST PUSH1 0x0 DUP2 ISZERO ISZERO SWAP1 POP SWAP2 SWAP1 POP JUMP JUMPDEST PUSH1 0x0 PUSH20 0xFFFFFFFFFFFFFFFFFFFFFFFFFFFFFFFFFFFFFFFF DUP3 AND SWAP1 POP SWAP2 SWAP1 POP JUMP JUMPDEST PUSH1 0x0 DUP2 SWAP1 POP SWAP2 SWAP1 POP JUMP JUMPDEST DUP3 DUP2 DUP4 CALLDATACOPY PUSH1 0x0 DUP4 DUP4 ADD MSTORE POP POP POP JUMP JUMPDEST PUSH1 0x0 JUMPDEST DUP4 DUP2 LT ISZERO PUSH2 0x9AC JUMPI DUP1 DUP3 ADD MLOAD DUP2 DUP5 ADD MSTORE PUSH1 0x20 DUP2 ADD SWAP1 POP PUSH2 0x991 JUMP JUMPDEST DUP4 DUP2 GT ISZERO PUSH2 0x9BB JUMPI PUSH1 0x0 DUP5 DUP5 ADD MSTORE JUMPDEST POP POP POP POP JUMP JUMPDEST PUSH1 0x0 PUSH1 0x2 DUP3 DIV SWAP1 POP PUSH1 0x1 DUP3 AND DUP1 PUSH2 0x9D9 JUMPI PUSH1 0x7F DUP3 AND SWAP2 POP JUMPDEST PUSH1 0x20 DUP3 LT DUP2 EQ ISZERO PUSH2 0x9ED JUMPI PUSH2 0x9EC PUSH2 0xA9C JUMP JUMPDEST JUMPDEST POP SWAP2 SWAP1 POP JUMP JUMPDEST PUSH2 0x9FC DUP3 PUSH2 0xB0E JUMP JUMPDEST DUP2 ADD DUP2 DUP2 LT PUSH8 0xFFFFFFFFFFFFFFFF DUP3 GT OR ISZERO PUSH2 0xA1B JUMPI PUSH2 0xA1A PUSH2 0xACB JUMP JUMPDEST JUMPDEST DUP1 PUSH1 0x40 MSTORE POP POP POP JUMP JUMPDEST PUSH1 0x0 PUSH2 0xA2F DUP3 PUSH2 0x975 JUMP JUMPDEST SWAP2 POP PUSH32 0xFFFFFFFFFFFFFFFFFFFFFFFFFFFFFFFFFFFFFFFFFFFFFFFFFFFFFFFFFFFFFFFF DUP3 EQ ISZERO PUSH2 0xA62 JUMPI PUSH2 0xA61 PUSH2 0xA6D JUMP JUMPDEST JUMPDEST PUSH1 0x1 DUP3 ADD SWAP1 POP SWAP2 SWAP1 POP JUMP JUMPDEST PUSH32 0x4E487B7100000000000000000000000000000000000000000000000000000000 PUSH1 0x0 MSTORE PUSH1 0x11 PUSH1 0x4 MSTORE PUSH1 0x24 PUSH1 0x0 REVERT JUMPDEST PUSH32 0x4E487B7100000000000000000000000000000000000000000000000000000000 PUSH1 0x0 MSTORE PUSH1 0x22 PUSH1 0x4 MSTORE PUSH1 0x24 PUSH1 0x0 REVERT JUMPDEST PUSH32 0x4E487B7100000000000000000000000000000000000000000000000000000000 PUSH1 0x0 MSTORE PUSH1 0x41 PUSH1 0x4 MSTORE PUSH1 0x24 PUSH1 0x0 REVERT JUMPDEST PUSH1 0x0 DUP1 REVERT JUMPDEST PUSH1 0x0 DUP1 REVERT JUMPDEST PUSH1 0x0 DUP1 REVERT JUMPDEST PUSH1 0x0 DUP1 REVERT JUMPDEST PUSH1 0x0 PUSH1 0x1F NOT PUSH1 0x1F DUP4 ADD AND SWAP1 POP SWAP2 SWAP1 POP JUMP JUMPDEST PUSH2 0xB28 DUP2 PUSH2 0x975 JUMP JUMPDEST DUP2 EQ PUSH2 0xB33 JUMPI PUSH1 0x0 DUP1 REVERT JUMPDEST POP JUMP INVALID LOG2 PUSH5 0x6970667358 0x22 SLT KECCAK256 JUMPDEST 0xE9 0xC4 0xD3 DELEGATECALL MOD 0xED SWAP8 NOT 0xB3 0x49 ISZERO 0xAD 0xEC SWAP16 0xE2 SSTORE GASPRICE SWAP11 LOG2 RETURNDATASIZE PUSH22 0x96828E0A229D859025D464736F6C63430008060033A2 PUSH5 0x6970667358 0x22 SLT KECCAK256 SWAP5 SWAP15 SLT 0xBB GT 0xD8 ISZERO 0xAF 0xBA 0x2A 0xB2 0xE1 0xC2 0xA9 DUP4 SWAP9 DUP7 PC PUSH17 0x5E9823A3AC78F715159345BEA964736F6C PUSH4 0x43000806 STOP CALLER "},"gasEstimates":{"creation":{"codeDepositCost":"1168800","executionCost":"1214","totalCost":"1170014"},"external":{"createThread(string)":"infinite","deployedThreads(uint256)":"4978","getDeployedThreads()":"infinite"}},"methodIdentifiers":{"createThread(string)":"b4a93c26","deployedThreads(uint256)":"e29c188c","getDeployedThreads()":"c5314210"}},"storageLayout":{"storage":[{"astId":4,"contract":"Thread.sol:ThreadFactory","label":"deployedThreads","offset":0,"slot":"0","type":"t_array(t_address)dyn_storage"}],"types":{"t_address":{"encoding":"inplace","label":"address","numberOfBytes":"20"},"t_array(t_address)dyn_storage":{"base":"t_address","encoding":"dynamic_array","label":"address[]","numberOfBytes":"32"}}},"userdoc":{"kind":"user","methods":{},"version":1}}